:020000040800F2
:10000000283D002045020008D54E00083342000874
:10001000E54D000879180008ED5B000800000000BD
:10002000000000000000000000000000AD0100081A
:100030000F1C000800000000F1010008F154000846
:100040005F0200085F0200085F0200085F0200080C
:100050005F0200085F0200085F0200085F020008FC
:100060005F0200085F0200085F0200085F020008EC
:100070005F0200085F0200085F020008D91B000849
:100080005F0200085F0200085F0200085F020008CC
:100090005F0200085F0200085F0200085F020008BC
:1000A0005F0200085F0200085F0200085F020008AC
:1000B000855500085F020008915500085F0200089E
:1000C0005F0200085F0200085F0200085F0200088C
:1000D0005F020008C55B00085F0200085F020008BD
:1000E000A51E00085F0200085F02000800F002F889
:1000F00000F04DF80AA090E8000C82448344AAF175
:100100000107DA4501D100F042F8AFF2090EBAE872
:100110000F0013F0010F18BFFB1A43F0010318473B
:100120007894000098940000103A24BF78C878C1F1
:10013000FAD8520724BF30C830C144BF04680C60ED
:10014000704700000023002400250026103A28BF35
:1001500078C1FBD8520728BF30C148BF0B60704739
:10016000662908F09084642900F0D080732900F09B
:100170001A85002070471FB500F0AAFD040000207A
:10018000002107F0E3FDE0601FBD10B510BD00F0D9
:100190009FFE1146FFF7EFFF05F054FD00F0BDFE96
:1001A00003B4FFF7F2FF03BC00F000FF224B196815
:1001B0000868B0E8F00F80F30988BFF36F8F4FF045
:1001C000000080F311884EF00D0E70470000000013
:1001D00006480068006880F3088862B661B6BFF31D
:1001E0004F8FBFF36F8F00DF00BF00BF08ED00E04F
:1001F000EFF30980BFF36F8F0F4B1A6820E9F00F00
:10020000106008B54FF0500080F31188BFF34F8F96
:10021000BFF36F8F06F054FD4FF0000080F311889C
:10022000BDE8084019680868B0E8F00F80F3098855
:10023000BFF36F8F704700BF58000020EFF30580B9
:10024000704700000948804709480047FEE7FEE77D
:10025000FEE7FEE7FEE7FEE7FEE7FEE7FEE7FEE776
:1002600004480549054A064B7047000083550008BD
:10027000ED00000828370020283D00202839002004
:10028000283900200FB41CB50C0007AA009001D03B
:100290002044401E074B7B4469460190069800F0BD
:1002A00050FC002C03D06946002000F05DFC1CBC13
:1002B0005DF814FBD908000070B50C460546012A0C
:1002C00005D02878800600D5EA69002302E00123E2
:1002D00005E05B1C934202D2E05C0028F9D1A869DA
:1002E000E618C01AA861286A184428622846AFF3A5
:1002F000008004E0D5E9012114F8010B9047B442D5
:10030000F8D32846AFF3008070BD00002DE9F0411E
:100310000646002410687529314616A510D0AFF3A3
:100320000080002802DA404213A507E031688A07FE
:1003300001D512A502E0490704D511A5012401E069
:10034000AFF3008000210A2206F1240709E0B0FB88
:10035000F2FCB0FBF2F302FB1C003030785418467C
:10036000491C0028F3D123462A463046BDE8F04117
:1003700000F079B9000000002D0000002B00000003
:10038000200000002DE9F0474FF0000A894604469E
:10039000C0F820A02046E1688847002876D02528AC
:1003A00006D0D4E901219047206A401C2062F1E781
:1003B000E168204600258847C4F81CA006460027AF
:1003C000C4F818A02A2E09D0304605F034FC38B302
:1003D00004EB8708303EC8F8186019E059F8041B90
:1003E000204604EB87029161E1688847012F0646A9
:1003F00018D1E069002820DA25F020051DE0D8F8A2
:10040000180000EB800006EB40003038C8F81800F8
:100410002046E1688847064605F00DFC0028EED12D
:10042000012F0AD02E2E08D12046E16888477F1C74
:100430000646022F45F02005C4DBA069002803DA38
:10044000404245F00105A061E80701D025F0100504
:10045000B6B1A6F14100192802D8203645F400654E
:100460004A463146204625604D46FFF779FE58B191
:10047000012806D0ED1D25F0070000F1080989E7E5
:1004800004E005F1040985E730468AE7206ABDE803
:10049000F08730B505460B462A4613F8014B12F893
:1004A000010B08B1A042F8D01CB1002802D06D1C8D
:1004B000F1E7284630BD10B5431C02E010F8011BDF
:1004C00071B18107FAD14FF0013202C88C1A8C4306
:1004D00014EAC211F9D0C01A0A0603D0C01E10BD1A
:1004E000C01A10BD0A0401D0801E10BD0902FCD044
:1004F000401E10BD032A40F2308010F0030C00F0C3
:10050000158011F8013BBCF1020F624498BF11F84D
:1005100001CB00F8013B38BF11F8013BA2F1040206
:1005200098BF00F801CB38BF00F8013B11F003037E
:1005300000F03D83083AC0F0088051F8043B083AC7
:1005400051F804CBA0E80810F5E7121D5CBF51F884
:10055000043B40F8043BAFF30080D20724BF11F8FE
:10056000013B11F801CB48BF11F8012B24BF00F863
:10057000013B00F801CB48BF00F8012B7047431A3C
:1005800028BF9A427FF6B6AF032A1044114440F2C6
:10059000268010F0030F1EBF11F8013D521E00F817
:1005A000013D10F0030F7FF4F6AF11F0030300F0EC
:1005B0004383083AC0F00B8051F8043D083A51F8E3
:1005C00004CD40F8043D40F804CDFFF7F3BF121D01
:1005D0005CBF51F8043D40F8043DAFF30080D20702
:1005E00024BF11F8013D11F801CD48BF11F8012CCD
:1005F00024BF00F8013D00F801CD48BF00F8012CF0
:10060000704702F0FF0343EA032242EA024200F08D
:100610003FBB4FF0000200B5134694469646203982
:1006200022BFA0E80C50A0E80C50B1F12001BFF4AB
:10063000F7AF090728BFA0E80C5048BF0CC05DF811
:1006400004EB890028BF40F8042B08BF704748BF5F
:1006500020F8022B11F0804F18BF00F8012B7047D3
:100660007047704770472DE9F0470D46994692460E
:10067000044600F124080168880604D5E06921F0E9
:100680001001216000E00120A84201DD471B00E0CD
:100690000027A1697A1902EB0900081AA0612078E5
:1006A000C00602D42046AFF30080002608E0D4E95B
:1006B00001211AF806009047206A401C761C20622F
:1006C0004E45F4DB2078C0060AD52046AFF3008003
:1006D00006E0D4E9012130209047206A401C2062C6
:1006E000381EA7F10107F4DC07E0D4E9012118F86E
:1006F00005009047206A401C2062281EA5F10105D4
:10070000F3DC2046AFF300802078000602D50220FB
:10071000BDE8F0870120FBE770472DE9FF4F0C464D
:100720001E464FF0FF378BB0D2E90001DDF8608044
:100730000A908A46C1F30A5505B93D46002108468C
:100740004FF00000BAF1000F00F4400005DA00EBB2
:1007500080004FF4400101EA50004FEA9059B9F18E
:10076000010F00DDB9460A9850EA4A000ED044F65F
:100770001050A5F2FF3545432F14B8F1000F1ED0DD
:100780007542291E1EDDC9F100021CE0B8F1010FFF
:100790004FF0000001D0302103E0F24305E0215486
:1007A000401CB042FBDB30460022002121540B9953
:1007B000C1F80880C1E900200FB0BDE8F08FBD1B73
:1007C0006D1CDEE74A4600DA694206A800F00AFB23
:1007D00006AB93E8070003AB83E8070050460A998D
:1007E00000F0EBFB8DE80700A0F500501F380090EB
:1007F0000398002D0ADD42F21F014A4608440023F7
:1008000003A90390684600F054FE09E0A0F50050EB
:100810004A461F38002303A90390684600F05EFE95
:100820008DE807000004000C03D04FF0FF304108B2
:1008300000E01046B8F1000F03D0002200921546E8
:100840001EE0751E05D400F047FA303262556D1E69
:10085000F9D5B3460122084302D000227F1C04E0F0
:100860002078302801D100227F1E002A099784D0E9
:100870001DE0112D07DA00F02FFA303262556D1CA1
:1008800050EA0102F5D1084302D00098C8B10EE049
:100890000021681E05E0235C625C63542254401E04
:1008A000491C8142F7DBAB46A81B401E0990002083
:1008B00004F80B000B98099AC0F80880C0E9002BD7
:1008C0007AE711264FF0000857E72DE9F04F8846E8
:1008D0000446D21D22F0070191B0D1E90001CDE913
:1008E0000A0105F084F902460B98C00F01D02D20B3
:1008F00007E02068810701D52B2002E0202101EAD2
:10090000C000032A099001D0072A05DB03464146AF
:10091000204600F027FA0BE12078800601D5E06937
:1009200000E00620B8F1650F814606D0B8F1660FE9
:1009300018D0B8F1670F70D131E00020B9F1110F74
:10094000009001DB112301E009F101030AAA01A9CA
:100950000CA8FFF7E2FEDDE90C70002609F10105A5
:10096000834647E001204B4600904FF000470AAA1B
:1009700001A90CA8FFF7D1FEDDE90DB00C995D4689
:10098000002610B909F101000D18B9EB050003D4D8
:10099000C0F1FF3609F10105A5EB09002BE0B9F123
:1009A000010F01DA4FF001090020B9F1110F009099
:1009B000484601DD112300E003460AAA01A90CA85C
:1009C000FFF7ABFEDDE90C704D460026834620782C
:1009D00000070AD4AB4500DA5D4601A8012D04DD0D
:1009E000411911F8011C302907D04F4502DA17F1DF
:1009F000040F04DA012082460FE06D1EEEE7002F9F
:100A000002DCED1B3E4403E0781CA84200DD7D1CA7
:100A1000B81B00F1010A4FF000472078000703D40B
:100A2000AA4501DB4FF0FF3A0021B7F1004F0DF16D
:100A300043088DF8431024D002202B23002F01DA25
:100A40007F422D230A21021EA0F1010000DC5FB1CC
:100A500097FBF1FC97FBF1F201FB1C7C17460CF1B4
:100A6000300C08F801CDEEE7A8F1010003702188F1
:100A7000090501D5452100E06521A0F1010800F834
:100A8000011C09980FA9A1EB0807FF1D00B1012067
:100A9000411901EBEA70A1693844081A401EA061AF
:100AA0002078C00602D42046AFF30080099828B110
:100AB000D4E901219047206A401C20622078C006BA
:100AC00022D52046AFF300801EE0002E04DBB345A4
:100AD00002DD01A8805D00E03020D4E901219047CB
:100AE000206A401C2062761CAAF101005FEA000A1D
:100AF0000AD100F0EDF8C0680168405CD4E901213A
:100B00009047206A401C2062281EA5F10105DCDC0C
:100B100007E0D4E9012118F8010B9047206A401C36
:100B20002062381EA7F10107F3DC2046AFF30080F6
:100B3000032011B041E6000001694A1C02610878F7
:100B4000704700B58FB0CDE901310021059105490D
:100B50007944CDE9031011466846FFF713FC0FB046
:100B600000BD0000E5FFFFFF0A6802F8010B0A6004
:100B70007047D1E900239A4202D2531C0B601070D7
:100B8000704710B5436913B1AFF3008001E0FFF780
:100B900093FB012010BD127800F124010A7000229D
:100BA0004A700122EDE711684FF0FF32E9E710B516
:100BB000203AC0F00B80B1E81850203AA0E8185055
:100BC000B1E81850A0E81850BFF4F5AF5FEA027C16
:100BD00024BFB1E81850A0E8185044BF18C918C085
:100BE000BDE810405FEA827C24BF51F8043B40F826
:100BF000043B08BF7047D20728BF31F8023B48BF0B
:100C000011F8012B28BF20F8023B48BF00F8012B48
:100C10007047431A28BF9A427FF6C9AF104410F0BC
:100C2000030F11441EBF11F8013D521E00F8013D93
:100C300010F0030F7FF4F6AF103AC0F00A8010B541
:100C400031E91850103A20E91850BFF4F9AFBDE867
:100C50001040530724BF31E9081020E9081044BFB1
:100C600051F8043D40F8043D12F0030F08BF7047EF
:100C7000D20728BF31F8023D48BF11F8012C28BF28
:100C800020F8023D48BF00F8012C70474FF00002E9
:100C90000429C0F0128010F0030C3FF4BCACCCF17E
:100CA000040CBCF1020F18BF00F8012BA8BF20F8FC
:100CB000022BA1EB0C01FFF7AEBC5FEAC17C24BFA5
:100CC00000F8012B00F8012B48BF00F8012B7047FA
:100CD00000487047E436002030B5B0F10A024FEA10
:100CE000900E71F100034EEA817EB0EB0E0061EBD5
:100CF00091014FEA101E4EEA017E10EB0E0041EB0F
:100D000011114FEA102E4EEA016E10EB0E0041EB6E
:100D100011214FEA104E4EEA014E10EB0E0041EB4E
:100D20001141401841F100014FEAD00040EA417002
:100D30004FEAD10110EB80054FEA810444EA907438
:100D400044EB01046D1944EB0404521BA3414FF022
:100D5000000348BF0A3200D530BD401C41F10001FC
:100D600030BD00002DE9F0411F460446032601680E
:100D7000072A01F4006004DB08B116A505E016A5FA
:100D800003E008B115A500E015A521F010002060D2
:100D9000A069C01EA0610FB1401EA0612046AFF344
:100DA00000804FB1D4E9012138469047206A401CA9
:100DB0002062C01C206206E0206AFAE7D4E9012123
:100DC00015F8010B9047761EF8D22046AFF300804D
:100DD000BDE8F0814E414E006E616E00494E460006
:100DE000696E66002DE9F047814616468AB035489F
:100DF00078440DC88DE80D0032487844801C03AC5F
:100E00000DC884E80D0041F69B300844372190FB63
:100E1000F1F290FBF1F5A5F1800501FB12041B3CFA
:100E200002D56442012000E00020DFF898A080464F
:100E30000027FA44AAF1BE0A0EE0E0070AD03246C3
:100E4000684607EB470101230AEB810100F046FBEE
:100E50008DE8070064107F1C002CEED1194F7F44F1
:100E6000AE3F19E0E80715D007EB04100DF1180AA2
:100E700090E80E008AE80E00C068F04201D198198F
:100E800008903246012306A903A800F027FB03AB14
:100E900083E807006D10641C002DE3D14FF00103BF
:100EA00032466946B8F1000F03A802D000F001FBFA
:100EB00001E000F013FBC9E90001C9F808200AB0FD
:100EC000BDE8F0877485000000487047C4360020F4
:100ED0007546FFF7F9FFAE4605006946534620F018
:100EE0000700854618B020B5FFF7BAF9BDE82040E5
:100EF0004FF000064FF000074FF000084FF0000BD6
:100F000021F00701AC46ACE8C009ACE8C009ACE888
:100F1000C009ACE8C0098D46704710B50446AFF370
:100F200000802046BDE81040FFF73AB94FF0013C81
:100F300050F8042B51F8043B9A4221D1A2EB0C0348
:100F4000934313EACC1317D150F8042B51F8043B08
:100F50009A4215D1A2EB0C03934313EACC130BD1A5
:100F600050F8042B51F8043B9A4209D1A2EB0C0330
:100F7000934313EACC13DBD04FF00000704700BF5F
:100F8000D01A01BAB1FA81F101F0180122FA01F088
:100F9000CB40C1F12001DBB2C0B2C01A2CFA01F380
:100FA000D11A914311EAC311E6D1704701491820C3
:100FB000ABBEFEE72600020070475FEA400C08BFA8
:100FC00091F0000F4FEA8C234FEAC12243EA5151BE
:100FD0004FEA1C5018BF00F5F0404FEA300018BF30
:100FE00041F000415FEA6C5C00F02980BCF1FF3FFA
:100FF00008BF40F080407047130C06BF12044FF04A
:10100000100C4FF0000C130E04BF12020CF1080C70
:10101000130F04BF12010CF1040C930F04BF9200D4
:101020000CF1020CD30F04BF52000CF1010C11465D
:101030004FF00002A0F11F00A0EB0C00704711F070
:10104000004F08BF704731F000413FF4D5AF0B0CA3
:1010500006BF09044FF0100C4FF0000C0B0E04BF3C
:1010600009020CF1080C0B0F04BF09010CF1040C70
:101070008B0F04BF89000CF1020CCB0F04BF490099
:101080000CF1010CCCF12003A0EB0C0022FA03F3CD
:1010900002FA0CF241EA030100F10100704720F06E
:1010A0007F4C80EA030023F07F47ACEB070303F596
:1010B0007C5300F0004003F1FF032DE980494FEA23
:1010C000154B09B44FEA144325EA0B4E24EA0348B2
:1010D0000FF2042606EB132749083E785FEA320236
:1010E00003FB0667C7F5000707FB06F64FEA543710
:1010F0004FEAD64606F1020607FB066CCCF1005C0F
:101100004FEA1C472CEA074C07FB06F40CFB06F5DC
:1011100004EB15464FEA961634BF00204FF000400E
:101120004FEAD13706FB07FC4FEA1C4C0CFB0BF7D0
:10113000D21B03FB0CF761EB07010CFB0EF7B0EBC6
:10114000074072EB17420CFB08F734BFA2EB0742D3
:10115000B2EB074261EB17414FEA0C444FEA9107AB
:1011600006FB07FC4FEA1C4C0CFB0BF7B0EBC7402F
:1011700072EB573203FB0CF734BFA2EBC742B2EB62
:10118000C74261EB57310CFB0EF7B0EBC70072EBB7
:1011900057720CFB08F734BFA2EBC702B2EBC702D1
:1011A00061EB5771039F4FEA816141EA921104EBB1
:1011B000CC044FEAD1374FEA826206FB07FC42EAD1
:1011C00090124FEA80604FEA1C4C0CFB0BF7D21BCD
:1011D00003FB0CF761EB07010CFB0EF7B0EB0740CC
:1011E00072EB17420CFB08F734BFA2EB0742B2EBDD
:1011F000074261EB17414FEA8C554FEA910704EB28
:101200009C2406FB07FC4FEA1C4C0CFB0BF7B0EBD5
:10121000C74072EB573203FB0CF734BFA2EBC74257
:10122000B2EBC74261EB57310CFB0EF7B0EBC700D6
:1012300072EB57720CFB08F734BFA2EBC702B2EB9C
:10124000C70261EB577115EB4C254FEA816141EA0A
:1012500092114FEA82624FEAD13742EA901206FBBE
:1012600007FC44F100044FEA80604FEA1C4C0CFB81
:101270000BF7D21B03FB0CF761EB07010CFB0EF71E
:10128000B0EB074072EB17420CFB08F734BFA2EB40
:101290000742B2EB074261EB174115EB1C154FEA11
:1012A000813141EA92414FEA823242EA90424FEA6A
:1012B00080304FEA0C7644F1000448EA03434EEADA
:1012C0000B484FF0000EB2EB080C71EB030724BF84
:1012D000624639464EEB0E0E4FF0000B001852419D
:1012E00049414BEB0B0BB2EB080C71EB03077BF1A5
:1012F000000B24BF624639464EEB0E0E4FF0000B3A
:101300000018524149414BEB0B0BB2EB080C71EB4F
:1013100003077BF1000B24BF624639464EEB0E0EED
:1013200051EA020718BF46F0010616EB0E7655F19A
:10133000000254F1000103D5BDE88901BDE8008831
:10134000BDE88901BDE80048B619524141EB0101F1
:10135000A3F10103704780807F7E7D7C7B7A797862
:10136000777676757473727171706F6E6E6D6C6C6A
:101370006B6A6A696868676666656464636362610C
:101380006160605F5F5E5E5D5D5C5C5B5B5A5A598D
:1013900059585857575656555555545453535252F9
:1013A0005251515050504F4F4F4E4E4D4D4D4C4C51
:1013B0004C4B4B4B4A4A4A4949494848484747479A
:1013C00047464646454545444444444343434342D7
:1013D000424242414141002B9C4630D477002BD001
:1013E0001CB54FEA370703B44FF010004FF010015F
:1013F000BAF1000F06D0BCF1000FDCBF40F00800CE
:1014000040F008014FF000000FBCBDE810400BF1A8
:10141000010BBBF1010F08BF5FEA170722BF12F1F2
:10142000010211F101014FF0004143F1000300F00E
:10143000004043EA00007047F9D35708D0E746EA76
:10144000064613F1400F4FEA16461FDD13F1200F39
:10145000DFBF16430A46002120335B42BED0C3F1F2
:10146000200746EA064602FA07F74FEA164646EA1A
:101470000706C3F1200722FA03F201FA07F721FA5F
:1014800003F14FF0000342EA0702A7E746EA02062B
:1014900046EA06464FEA164646EA0106BCBF46EA59
:1014A0000646360C4FF000034FF000024FF00001EB
:1014B00094E72DE9804C9A46934670B491E8380041
:1014C00007C831EA400C48BF34EA430C03D5FFF7A4
:1014D000E6FDFFF780FFF0BCBDE8008C2DE9804CF5
:1014E0009A46934670B491E8380007C810F0804FD0
:1014F00008BF13F0804F03D100F005F8FFF76BFF32
:10150000F0BCBDE8008C20F07F4780EA030023F0A8
:101510007F4C07EB0C03A3F57C5300F00040A3F1D4
:10152000FE0392F0000F00F0B38095F0000F00F082
:1015300077802DE901494FEA11404FEA144621EA2C
:10154000004800FB06FC24EA064708FB06F607FBFA
:1015500008F800FB07F718EB06484CEB164C4FEA6F
:10156000124B18EB07484FEA15464CEB174022EA9E
:101570000B4E0BFB06FC25EA06470EFB06F607FBA7
:101580000EFE0BFB07F71EEB064E4CEB164C4FF016
:1015900000061EEB074E4CEB174B18EB0B0840F107
:1015A000000018EB0E0B58EB000840F100008F1AFA
:1015B0004FF000013CBFC943661B14BFB5EB040CE0
:1015C00000213CBFC943F61B4FEA17444EEA8E0E7A
:1015D00027EA04454FEA1C4704FB07622CEA074C44
:1015E00005FB07F70CFB05F604FB0CFC16EB0746A6
:1015F00042EB174216EB0C4642EB1C421BEB060675
:1016000058EB0202414146EA9E0601D5BDE8018938
:10161000B619524141EB0101A3F10103BDE8018973
:101620004FEA14454FEA114724EA054621EA074CE0
:1016300005FB07F406FB07F70CFB06F105FB0CFCAA
:1016400011EB074144EB17444FEA124711EB0C41F1
:1016500044EB1C4422EA074C05FB07F206FB07F7A4
:101660000CFB06F605FB0CFC16EB074642EB17429B
:1016700016EB0C4642EB1C456A1854F1000148BFBA
:101680007047B619524141EB0101A3F101037047C4
:1016900095F0000F37D04FEA11424FEA144721EA84
:1016A000024624EA074C02FB07F106FB07F70CFB96
:1016B00006F402FB0CFC14EB074441EB17414FEA24
:1016C000154714EB0C4441EB1C4125EA074C02FB87
:1016D00007F506FB07F70CFB06F602FB0CFC16EB06
:1016E000074645EB174516EB0C4645EB1C42121915
:1016F00051F1000148BF7047B619524141EB010159
:10170000A3F1010370474FEA14454FEA114724EA59
:10171000054621EA074C05FB07F106FB07F70CFB22
:1017200006F24FF0000605FB0CFC12EB074241EB02
:10173000174112EB0C4251EB1C4148BF7047921805
:1017400041EB0101A3F101037047000070B50446AD
:1017500000688168C943C90717D1816821F0010178
:10176000816001F079F905460AE000BF01F074F9E3
:10177000401B022804D920688068C043C00706D0F7
:1017800020688068C043C007F0D0002070BDA06A08
:1017900040F01000A062E06A40F00100E062012029
:1017A00070BD0000F8B50026044600960068816808
:1017B000C943C9072DD0816841F0010181601648F5
:1017C00016490068B0FBF1F000E0401E00900028D0
:1017D000FBD101F041F9054616E000BF01F03CF9EC
:1017E000401B022810D920688068C043C0070BD076
:1017F000A06A40F01000A062E06A40F00100E062E0
:1018000084F824600120F8BD20688068C043C007C8
:10181000E4D10020F8BD00005400002040420F0039
:10182000B0F80022B0F802329A4201D1012070478C
:10183000B0F80222825C0A70B0F80212491CC1F3AF
:101840000801A0F8021200207047B0F80022B0F89A
:101850000232521CC2F30802934206D1B0F802329F
:101860005B1CC3F30803A0F80232B0F80032C15485
:10187000A0F8002200207047FEE7000000F028FAE0
:1018800041F2883402E0204605F076F803F000F8D3
:101890000028F8D10A4F01263E70451E0022294635
:1018A0002B46104606F092F80128F7D102E02046B8
:1018B00005F062F802F0ECFF0028F8D13E70EDE789
:1018C000E80000204FF0000808B5DFF88890464691
:1018D00045464FF0FF3739463B466A46002006F042
:1018E00075F80128F7D1009806F06EFF1A4906F046
:1018F00055FE1A49884203DB1949884202DC26B9A1
:1019000000240AE01749884201DA012405E0B0F119
:10191000844F01DA022400E0032400F0DFFA10B162
:101920000025FF26D7E7B4420ED044450ED16D1CEA
:10193000EDB2052DCFD3D9F80C00264620B10023F7
:101940000322214605F05AFF0025C4E7A0460125E1
:10195000C1E7000000000020000020410000A0417D
:101960000000D0410000F04108B50B4D4FF0FF34AE
:10197000214623466A46002006F028F80128F7D1C0
:1019800000980A2801D2042102E05A28F0D9022145
:10199000286C05F0D5F9EBE7000000207FB50120A9
:1019A00000244FF480750290CDE900540220164EB9
:1019B00003906946304600F04DFF04E0641CA4B279
:1019C000012000F025F92946304601F033F810B126
:1019D000642CF3D30FE0642C0DD2002404E0641CCB
:1019E000A4B2012000F014F92946304601F022F893
:1019F00020B1642C05D3012004B070BD642CEED35B
:101A0000F9E70020F8E70000000801407FB50F4823
:101A1000816941F00401816180694FF4807400F0B4
:101A200004000090002002900120CDE90040022037
:101A3000074D03906946284600F00CFF04B021468C
:101A40002846BDE87040012201F001B800100240B4
:101A5000000801402DE9F041074600244FF480754D
:101A6000184E04E0641CA4B2012000F0D1F829460D
:101A7000304600F0DFFF10B1642CF3D30FE0642C8C
:101A80000DD2002404E0641CA4B2012000F0C0F8D0
:101A90002946304600F0CEFF20B1642C05D301204A
:101AA000BDE8F081642CEED3F9E7282000F0B0F80F
:101AB0002946304600F0BEFF00B1012038700020FA
:101AC000EEE7000000080140F8B5002506462C4668
:101AD0006846FFF7BFFF01280AD06806050E9DF88B
:101AE0000000641C0543E4B2082CF1D335700020DB
:101AF000F8BD00002DE9FC41054600202860686023
:101B000000F050F8FFF74AFFF0BB00246E46301992
:101B1000FFF7DAFF01283FD0641CE4B2052CF6D3AE
:101B20009DF800109DF801009DF802209DF80330FB
:101B300001441A4411449DF80420C9B28A422DD1AF
:101B400006F04CFB164E0022334606F0EFF907462E
:101B50000C469DF8000006F041FB3A46234606F08D
:101B60003DF906F009F928609DF8030006F036FB00
:101B70000022334606F0DAF906460C469DF80200CC
:101B800006F02CFB324600E008E0234606F026F97A
:101B900006F0F2F868600020BDE8FC810120FBE758
:101BA0000000244070B5FFF731FF0A4D4FF48074F8
:101BB00000222146284600F04AFF142000F00AFEC9
:101BC00001222146284600F042FFBDE87040142063
:101BD00000F01EB800080140014800F0EBBC000016
:101BE0005C02002030B590F840500124AC40C56B39
:101BF0006C60046863604368102B036803D09960CD
:101C00000068C26030BD9A600068C16030BD704736
:101C100030B50C4A00211368DC6A4FF47A726043D5
:101C2000B0FBF2F55A6A586A9042FCD002D9A0EB98
:101C3000020202E0A4EB0202024411440246A9425D
:101C4000F1D330BDA00200200EB503F044F900210D
:101C500018A2084603F033FA044618A20221002015
:101C600003F02DFA17A20421002003F028FA174EE2
:101C700005464FF0FF373A466946B06A05F0CAFBA1
:101C80000128F8D19DF8000038B10128F3D1E8B25D
:101C90000421019A03F0D4F9EDE7E0B20123002119
:101CA000029A03F077F9E0B201230221019A03F0CE
:101CB00071F9E0E774656D703A00000068756D6950
:101CC0003A0000006C696768743A00000000002068
:101CD00038B54FF47A7000F07DFD0C4C002021687F
:101CE0000A68496800910A49A1F80002A1F80202B5
:101CF0004FF4807201F20461204602F039FA206844
:101D0000C16841F01001C16038BD0000140200201C
:101D1000C02F0020F8B51F48C06B006840681E4FF8
:101D2000C0F5807086B2BC881C4DA64206D808E07B
:101D3000295D1B48FFF789FD641CA4B2B442F7D3A8
:101D400013E006D311E0295D1548FFF77EFD641C02
:101D5000A4B2FF2CF7D9002405E0295D1048FFF755
:101D600074FD641CA4B2B442F7D3BE80002000907E
:101D70000C486946006805F0F6FA0098002807D07C
:101D800009494FF080500860BFF34F8FBFF36F8F4A
:101D9000F8BD000014020020E8000020C435002037
:101DA000C02F00203800002004ED00E02DE9F84F9E
:101DB000044617465FEA010A084664D0FEF77BFB3B
:101DC000002860D031494FF000094D46A1F800923B
:101DD000A1F802922046FEF76EFB82B24FF0FF366A
:101DE000334621462A4802F0D3F93346022229A17C
:101DF000274802F0CDF9284CDFF8A080E58088F86C
:101E0000005005F079FD06464FF47A704743B7FB62
:101E1000F0F733E022483221006805F0A1FB0128E9
:101E20002CD11DE0E58840F2FF30854206D29DF8B6
:101E3000001008F805106D1CA9B20EE040F2FE3249
:101E400008F101011548FEF79AFB6D1EA8B29DF836
:101E5000002008F80020401C81B2E18008F80190C1
:101E600069460A48FFF7DCFC0028DBD051460B48E6
:101E7000FEF70FFB10B10020BDE8F88F05F03CFD28
:101E8000801BB842C6D30120F6E70000C02F002017
:101E9000140200200D0A0000E8000020C4310020D8
:101EA0003800002010B54FF4804000F0C7FCBDE8BA
:101EB00010404FF4004000F0C1BC72B6FEE70000D5
:101EC00010B502F091FF002002F0C4FF024800218B
:101ED0000170417010BD0000D8000020014840781A
:101EE00070470000D800002001484078704700008B
:101EF000D800002028B1012805D0022805D00020F4
:101F0000704701207047022070470320704700008F
:101F10000149487070470000D800002010B5044601
:101F200002F098FF0148047010BD0000D8000020A6
:101F30008AB0FFF7C5FF114F4FF0FF3504AE2946B9
:101F40002B4608AA002005F041FD0128F7D108988A
:101F5000C4B22046FFF7E2FF09A210216846FEF74F
:101F600091F9234607A210213046FEF78BF9002392
:101F700064226946786905F0CFF8E0E700000020A8
:101F800066616E0025640000F8B5002504460095E2
:101F900090F8240001280BD0012084F8240020466A
:101FA000FFF7D4FB2046FFF7FDFB060002D050E010
:101FB0000220F8BDA06A20F4885040F00200A06220
:101FC000022001F039F825490968B1FBF0F0400022
:101FD00000E0401E00900028FBD12068816841F09D
:101FE0000801816000F038FD074608E000F034FD8C
:101FF000C01B0A2803D920688068000715D4206810
:1020000080680007F2D42068816841F00401816093
:1020100000F022FD074612E000F01EFDC01B0A285A
:102020000DD920688068400709D5A06A20F0020019
:1020300040F01000A06284F824500120F8BD206810
:1020400080684007E8D4A06A20F0020040F0010058
:10205000A06284F824503046F8BD000054000020EF
:10206000F8B50024009490F824202546012A12D0C7
:10207000012280F824204A681F23072A0DD206680F
:10208000776B521E02EB820293409F430B68934092
:102090001F43776319E00220F8BD06680D2A0AD2B3
:1020A000376BD21F02EB820293409F430B68934031
:1020B0001F43376309E0F76A0D3A02EB820293404F
:1020C0009F430B6893401F43F7620A680723066823
:1020D0000A2A0AD3F7680A3A02EB420293409F4366
:1020E0008B6893401F43F76008E0376902EB4202B8
:1020F00093409F438B6893401F4337610A68102ABF
:1021000001D0112A20D1124B02689A4217D193684C
:102110001B0219D4936843F40003936009681029E3
:1021200012D10C490C4A0968B1FBF2F101EB8101B3
:10213000490000E0491E00910029FBD104E0816ABA
:1021400041F020018162012480F824502046F8BD2E
:10215000002401405400002040420F000068C06C81
:10216000704700002DE9F0414FF0000704003D46A4
:102170007ED0A06A002628B9E66284F82460204652
:1021800000F07EF82046FFF7E1FAA16AC90600D404
:1021900020B1A06A40F01000A06269E0A16A21F4B9
:1021A000885141F00201A1626268E169237B0A4320
:1021B00047EA43010A43A1684FF48077B94209D046
:1021C000012907D05FF0000194F814C0BCF1010FA1
:1021D00002D00AE03946F7E7F3B1A36A43F02003DF
:1021E000A362E36A43F00103E3622368D3F804C007
:1021F0002CF4694C4CEA010CC3F804C021688B68CC
:10220000DFF870C003EA0C0313438B60A168B94286
:102210000BD0012909D00CE0DFF85CC0A3690CEBFE
:1022200043330B4343F40061DFE7218A0D05A5F535
:1022300080152168CB6A23F470032B43CB6221689D
:1022400089680E4B1940914208D1E662A16A21F0DB
:10225000020141F00101A162BDE8F081A06A20F015
:10226000020040F01000A062E06A40F00100E0626D
:102270000120F1E7FDF7E1FF00E0FFFFFE0E1FFF89
:1022800000B585B000210091019102910391006891
:102290000E49884218D10E48816941F4007181616C
:1022A000816901F400710491816941F00401816147
:1022B0008069694600F0040004900120009003202A
:1022C0000190044800F0C6FA05B000BD00240140AA
:1022D00000100240000801402DE9F84300270D4698
:1022E0000446009700F0B8FB804620688168C90565
:1022F00008D5A06A40F02000A06284F82470012074
:10230000BDE8F8834168C90503D4C06A10F4700FB2
:102310002AD0022000F090FE3B490968B1FBF0F69C
:102320002068036939490B424FEA61014FEAA11263
:102330001FD1C3684FEA611C13EA0C0F19D103695E
:102340000B4225D1C068104222D1142023E0681C22
:102350000AD02DB100F080FBA0EB0800A84203D901
:1023600020680068800725D5206800688007EED5C2
:102370002DE003690B4202D1C168114206D0026907
:1023800023490A4206D1C068084203D1542002E022
:10239000292000E0FC204643009816E0681C11D07C
:1023A0002DB100F059FBA0EB0800A8420AD9009813
:1023B000B04207D2A06A40F00400A06284F8247002
:1023C00003209DE70098401C0090B042E6D32168AE
:1023D0006FF012000860A06A40F40070A0622068EC
:1023E0008068C0F3424007280CD1207B50B9A06A16
:1023F00020F48070A062A06AC00403D4A06A40F0F8
:102400000100A06200207BE75400002024499224B0
:102410004992240070B5044690F8240001280DD09C
:10242000012084F824002046FFF7BCF902004FF099
:10243000000005D084F82400104670BD022070BD55
:10244000A16A40F20123994341F48071A1621F4DBA
:1024500023681F49AB4218D10E6816F4702F14D0B0
:10246000A66A46F48016A6620E68760505D5A66AA9
:1024700026F4005646F48056A662A66AF6040AD5EB
:10248000E66A26F00606E66206E0A66A26F48016EC
:10249000A6625E68E9E7E06284F824006FF002005B
:1024A000186020688368C3F34243072B05D1A84214
:1024B00008D1096811F4702F04D0816841F48011AB
:1024C0008160B9E7816841F4A001F9E70028014083
:1024D0000424014010B590F821100022022905D0F3
:1024E0000421816380F82020012010BD01680B6861
:1024F00023F00E030B6001680B6823F001030B60EF
:1025000090F84030C46B012101FA03F3636080F856
:10251000211080F82020104610BD000010B590F862
:1025200021100024022903D00421816301243DE00D
:1025300001680A6822F00E020A6001680A6822F047
:1025400001020A601A4A0168914201D1012121E089
:10255000174A1432914201D110211BE0144A28324B
:10256000914201D1891515E0114A3C32914201D1C5
:1025700089140FE00E4A5032914202D14FF480315B
:1025800008E00B4A6432914202D14FF4801101E01D
:102590004FF08071064A083A5160012180F82110FD
:1025A000002180F82010416B01B18847204610BD02
:1025B000080002402DE9F05FC16B0C6801680B68F0
:1025C000D0F840C0042202FA0CF2494DDFF824A1F1
:1025D000494E4A4FDFF828B1DFF828E122422CD0DB
:1025E0005A072AD50A68920603D40A6822F0040220
:1025F0000A600168A94201D1042219E0514501D1C4
:10260000402215E0B14202D14FF4806210E0B9429D
:1026100002D14FF480420BE0594502D14FF48022A1
:1026200006E0714502D14FF4800201E04FF0806274
:102630002F4908394A60C16A3BE04FF0020808FAA6
:102640000CF818EA040F4FF000094FF0010235D0E2
:102650005FEA837832D50B689B0605D40B6823F0BC
:102660000A030B6080F821200168A94201D10222EF
:1026700019E0514501D1202215E0B14202D14FF4B9
:10268000007210E0B94202D14FF400520BE05945FC
:1026900002D14FF4003206E0714502D14FF400122E
:1026A00001E04FF00072124908394A6080F820902A
:1026B000816A00291AD0BDE8F05F0847082505FAAD
:1026C0000CF5254212D01B0710D50B6823F00E0322
:1026D0000B6090F84010C36B02FA01F159608263FD
:1026E00080F8212080F82090016BE2E7BDE8F09FA0
:1026F000080002401C00024030000240440002403A
:10270000580002406C00024030B528B308C8134995
:1027100014221944B1FBF2F18900C16310498163AD
:10272000022141771A6843F6F0718A43D0E9001418
:102730002143D0E902452C432143046921434469E4
:10274000214384692143114319600021416301221F
:1027500042770177084630BD012030BDF8FFFDBF4C
:102760000000024070B5044690F8200000250128C2
:102770000CD0012084F8200094F821600020012E64
:1027800006D084F820000225284670BD022070BDC6
:10279000022684F82160A0632068066826F00106FE
:1027A00006602046FFF71EFAE06A002820680168EC
:1027B00002D041F00E0106E021F004010160206822
:1027C000016841F00A0101602068016841F00101DF
:1027D0000160D9E770B5044600F03EF90546601C7B
:1027E00002D004480078044400F036F9401BA042AF
:1027F000FAD370BD4800002008B500210D4A0091B1
:10280000B0F5804F05D0B0F5004F11D16946106B7F
:1028100001E06946506B04F0A6FD0098002807D03F
:1028200005494FF080500860BFF34F8FBFF36F8FA3
:1028300008BD00000000002004ED00E0044910B5D0
:102840000A68024202D00860FFF7D6FF10BD000000
:10285000140401402DE9F84FDFF8B8910024A9F1E4
:10286000040B23460F2709F1040AABF1040EC9E05B
:102870000125A5402A40AA427DD1674ED1F804C067
:10288000ACEB0608B44532D014DCBCF1030F3AD0EF
:1028900009DCBCF1000F2AD0BCF1010F1CD0BCF147
:1028A000020F31D11DE0BCF1110F17D0BCF1120F96
:1028B0002AD119E0B8F5881F19D006DCB8F5803F99
:1028C00015D0B8F5801F1FD111E0B8F5001F0ED04C
:1028D000B8F5041F18D10AE0CB6815E0CB681B1DC2
:1028E00012E0CB6808330FE0CB680C330CE08B6848
:1028F0002BB1012B4FF0080303D0456104E0042302
:1029000002E0056100E00023FF2A01D8064601E04D
:1029100000F104064FEA840501D9A5F12005D6F897
:10292000008007FA05FC28EA0C0803FA05F548EAD6
:102930000508C6F800804D68ED0062D5374DAE69D8
:1029400046F00106AE61AD6924F0030605F001050D
:102950000095334D06EB050CDCF80850A607360F42
:1029600007FA06F825EA0805DFF8B880404503D1E4
:102970004FF0000817E044E0DFF8AC80404502D19A
:102980004FF001080FE0DFF8A480404502D14FF07E
:10299000020808E0DFF89880404502D14FF00308B4
:1029A00001E04FF0040808FA06F848EA0508CCF8F8
:1029B00008804D68D9F80060ED024D4601D51643F8
:1029C00000E096432E604D68DAF80060AD0255468F
:1029D00001D5164300E096432E604D68DBF8006099
:1029E000AD035D4601D5164300E096432E604D6869
:1029F000DEF80060ED03754601D5164300E096430E
:102A00002E60641C0D682A46E5407FF431AFBDE8B6
:102A1000F88F00000804014000001110001002406F
:102A20000000014000080140000C0140001001407E
:102A3000001401408068084000D001207047C2683F
:102A400021EA02030A4043EA0241016170470AB1E8
:102A5000016170470904FBE7014880687047000086
:102A60004800002070B5040025D094F83D000025F2
:102A700020B984F83C50204600F0E6F9242084F880
:102A80003D002068016821F00101016020680168B3
:102A900041F4004101602068016821F400410160B7
:102AA00000F048FC4D4A6168914201D84C4900E071
:102AB0004C49884201D2012070BD4B492368B0FBCC
:102AC000F1F15E6826F03F060E435E606368934254
:102AD00006D94FF4967359434FF47A73B1FBF3F16F
:102AE0002368491C1E6A26F03F063143196261685B
:102AF000914210D84900401EB0FBF1F2521CC2F3C3
:102B00000B02042A01D2042022E0B0FBF1F0401CA9
:102B1000C0F30B001CE0A268F2B301EBC10303EBAE
:102B20000116431EB3FBF6F35B1C43F480431B0505
:102B300049D092B301EBC10202EB0111401EB0FB80
:102B4000F1F0401CC0F30B0040F4804040F4004022
:102B50002168CA694CF6FF739A431043C861D4E9EF
:102B6000071001432068026822F0C002114301608F
:102B7000D4E9030101432068826848F2FF339A4395
:102B800011438160D4E9050108432168CA6822F035
:102B9000FF021043C86001E00EE016E02068016803
:102BA00041F0010101602564202084F83D00256387
:102BB00084F83E50002070BD01EB4106431EB3FB7C
:102BC000F6F35B1CB3E70120C2E701EB4101401EB5
:102BD000B0FBF1F0401CC0F30B00B7E7A08601008A
:102BE00080841E0000093D0040420F002DE9F84F8F
:102BF0001F4690468A460446DDF82890FFF72CFFD2
:102C0000054694F83D0020287FD119230122404930
:102C10002046009501F0F4FB002876D194F83C00A2
:102C2000012872D0012084F83C0020680168C9079F
:102C300003D1016841F0010101602068016821F4BD
:102C400000610160212084F83D00102084F83E00DE
:102C500000262664C4F824806785608D20852D4871
:102C6000E0622B464A465146204601F0FBFA90B9F5
:102C7000206841698069009036E02A46494620462E
:102C800001F064FC50B1206C042804D12068016874
:102C900041F4007101600120BDE8F88F606A21688D
:102CA00000780861606A401C6062618D491E618520
:102CB000218D491E89B2218522685369DB435B0758
:102CC0000BD451B100781061606A401C6062608D65
:102CD000401E6085208D401E20852A46494620469C
:102CE00001F062FB0028CED1208D0028C5D154F818
:102CF0003D0B016841F400710160202004F81E09B9
:102D0000E67766770020C7E7FFE70220C4E7000008
:102D1000020010000000FFFF2DE9FF4F83B09A462C
:102D2000DDE9119793460446DDF84080FFF794FEF5
:102D3000054694F83D0020287FD1192301224049FF
:102D40002046009501F05CFB002876D194F83C0009
:102D5000012872D0012084F83C0020680168C9076E
:102D600003D1016841F0010101602068016821F48C
:102D700000610160212084F83D00402084F83E007D
:102D800000262664C4F82480A4F82A90608D20854B
:102D90002C48E062CDE9007553465A462046049916
:102DA00001F0AEFA70B930E02A463946204601F00B
:102DB000CDFB58B1206C042804D12068016841F48F
:102DC00000710160012007B0BDE8F08F606A2168E2
:102DD00000780861606A401C6062218D491E89B2DA
:102DE0002185628D521E628522685369DB435B0731
:102DF0000BD469B100781061606A401C6062208D5C
:102E0000401E2085608D401E6085208D0028CBD11E
:102E10002A463946204601F0C7FA0028CAD154F89C
:102E20003D0B016841F400710160202004F81E0987
:102E3000E67766770020C6E7FFE70220C3E70000D9
:102E4000020010000000FFFF10B586B000210091C5
:102E500001910291039100680F4988421AD10F4CE9
:102E6000A06940F00800A061A069694600F0080070
:102E70000490C02000901220019003200390084885
:102E8000FFF7E8FCE06940F40010E061E06900F45D
:102E90000010049006B010BD005400400010024025
:102EA000000C01400248816802781144816070473B
:102EB00048000020074810B5016841F0100101608A
:102EC000032000F0A7F80F2000F006F800F050F8FB
:102ED000002010BD0020024030B505461F4887B0D5
:102EE000C16941F00401C161C06906A900F0040094
:102EF000009001A800F0FEF90498B0B100F01AFAB1
:102F000040001749174AB0FBF1F11748491E02600B
:102F1000416040F2E7320021C0E903218160816114
:102F200000F0A6FC040003D015E000F003FAE8E787
:102F30000D4800F0DDFC04000DD11E2000F03CF82F
:102F4000102D07D2002229461E2000F043F8074822
:102F5000056000E0012407B0204630BD00100240AB
:102F600040420F0000080040A00200204C0000205A
:102F70000F4808B5816941F001018161816901F063
:102F800001010091C16941F08051C161C069002215
:102F900000F0805000900F21901E00F01BF80548B3
:102FA000416821F0E06141F00071416008BD00001E
:102FB0000010024000000140002809DB00F01F0261
:102FC000012191404009800000F1E020C0F800118B
:102FD00070470000F0B40E4B1B680C46C3F302238D
:102FE000C3F10705042D00D90425191D072901D2B5
:102FF000002300E0DB1E012606FA05F1491E2140F0
:1030000099409E40761E16403143F0BC02F003BE4C
:103010000CED00E0064900F0070208684FF6FF03D8
:10302000184040EA0220034A10430860704700003D
:103030000CED00E00000FA0510B501460020234C1D
:10304000012922D0022939D010291DD161682268B6
:10305000D20119D51E48C1F38342C903805C0AD549
:1030600061681B4AC1F34041921E515C194AB2FB90
:10307000F1F1484301E0184948436168490203D42B
:1030800040000321B0FBF1F010BD226AC2F3012120
:10309000012903D1920701D5C80310BD022905D12A
:1030A000626A920702D549F6404010BD0329FCD15F
:1030B00021688903F9D54FF2244010BD00F04AF988
:1030C0006168C1F38131491C4900DBE7001002400F
:1030D000C48A000800127A0000093D002DE9F84377
:1030E00005460078354CC00754D0E0690026C00082
:1030F00008D4E06940F08050E061E069012600F00A
:10310000805000902E480168C90512D4016880469D
:1031100041F480710160FFF79FFC074605E000BFA6
:10312000FFF79AFCC01B642823D8D8F80000C0051C
:10313000F6D5206A10F4407021D0A98801F44071BE
:1031400081421CD0206A1F49012220F440700A608D
:1031500000220A602062C00711D0FFF77DFC0746FD
:1031600041F2883808E000BFFFF776FCC11B4145FB
:1031700002D90320BDE8F883206A8007F4D5206ACD
:10318000696820F44070084320621EB1E06920F0B5
:103190008050E0612878800705D56068A96820F430
:1031A0004040084360602878C00605D56068E9683B
:1031B00020F48000084360600020DBE7001002403C
:1031C00000700040400442422DE9F0470F460500E0
:1031D00061D0434E306800F00700B84209D2306831
:1031E00020F0070038433060306800F00700B84234
:1031F00051D128683B4C810712D5400703D5606840
:1032000040F4E06060602878000703D5606840F40F
:10321000605060606068A96820F0F000084360605A
:103220002878C00728D06868012810D021680228B3
:1032300010D0890700292EDA616821F003010143CB
:103240006160FFF709FC804641F288390DE0216892
:103250008903EFE78901EDE7FFF7FEFBA0EB08012B
:10326000494502D90320BDE8F0876068696800F02D
:103270000C00B0EB810FEFD1306800F00700B842CE
:103280000BD9306820F0070038433060306800F018
:103290000700B84201D00120E5E72878400705D5AE
:1032A0006068E96820F4E0600843606028780007FF
:1032B00006D56068296920F4605040EAC10060606A
:1032C00000F058F86168084AC1F30311515CC84026
:1032D0000649086006480068FFF7FEFD0020C2E7C7
:1032E0000020024000100240D48A00085400002050
:1032F0004C0000200F2202600C4A536803F00303C5
:103300004360536803F0F0038360536803F4E063A1
:10331000C36052684FF4E06303EAD20202610448DA
:10332000006800F0070008607047000000100240CD
:10333000002002400448054900684968044AC1F376
:103340000221515CC8407047540000200010024028
:10335000E48A00080448054900684968044AC1F342
:10336000C221515CC8407047540000200010024048
:10337000E48A00080E4A51680E4801F00C03042B41
:1033800011D0082B0FD10C48C1F38343C903C05C93
:103390000AD55168084AC1F34041921E515C054A62
:1033A0005043B0FBF1F070470449484370470000B8
:1033B0000010024000127A00B28A000800093D00A5
:1033C0002DE9F84F040070D02078C04DC00749D0D7
:1033D0006868C0F38100012807D06868C0F38100E5
:1033E000022809D16868C00306D52868800339D54A
:1033F00060680028E7D035E06068B0F5803F0BD00A
:1034000010B1B0F5A02F11D0286820F480302860CA
:10341000286820F4802002E0286840F4803028608A
:10342000606890B1FFF718FB06460AE0286840F490
:1034300080202860F0E700BFFFF70EFB801B6428A8
:1034400073D828688003F7D50CE0FFF705FB064624
:1034500005E000BFFFF700FB801B6428F0D8286858
:103460008003F7D420789A4E80074FF001094FF07F
:10347000000839D5686810F00C0F07D06868C0F3F1
:103480008100022809D16868C00306D42868800733
:1034900014D52069012808D110E02069B0B1C6F820
:1034A0000090FFF7D9FA074605E00AE1FFF7D4FAE2
:1034B000C01B0228C4D828688007F7D5286861692E
:1034C00020F0F80040EAC10028600DE0C6F8008056
:1034D000FFF7C2FA074604E0FFF7BEFAC01B022856
:1034E00023D828688007F7D4207800072CD579489E
:1034F000A169D9B1C0F80090FFF7AEFA074604E021
:10350000FFF7AAFAC01B02280FD8686A8007F7D510
:1035100071484FF4FA510068B0FBF1F0009000BF21
:103520000098411E0091FAD20EE080E0C0F80080C1
:10353000FFF792FA074604E0FFF78EFAC01B022855
:1035400075D8686A8007F7D42078400760D5E869A5
:103550000027C00008D4E86940F08050E861E869BD
:10356000012700F0805000905C480168C90513D421
:103570000168834641F480710160FFF76DFA82466D
:1035800006E000BFFFF768FAA0EB0A0064284ED8F7
:10359000DBF80000C005F5D5E06801280AD008B1C5
:1035A000052813D0286A20F001002862286A20F03C
:1035B000040002E0286A40F001002862E06841F25D
:1035C000883B98B1FFF748FA82460BE0286A40F042
:1035D00004002862EEE700BFFFF73EFAA0EB0A0105
:1035E00059455AD8286A8007F6D50CE0FFF734FA17
:1035F000824605E0FFF730FAA0EB0A0159454CD8A6
:10360000286A8007F6D41FB1E86920F08050E8618D
:10361000E06988B36968C1F38101022944D00228B6
:10362000C6F8608004D0FFF717FA044638E034E0AB
:10363000FFF712FA074604E0FFF70EFAC01B022854
:103640002BD828688001F7D4206AB0F5803F05D1D7
:103650006868A16820F4003008436860D4E9080174
:103660000843696821F4741108436860C6F86090E3
:10367000FFF7F2F9044606E025E000BFFFF7ECF99A
:10368000001B022809D828688001F7D51BE000BF7D
:10369000FFF7E2F9001B022802D90320BDE8F88FEA
:1036A00028688001F4D40EE00128F7D06868226A07
:1036B00000F48031914204D1616A00F470108842B4
:1036C00001D00120EAE70020E8E7000000100240F6
:1036D000000042428004424254000020007000403A
:1036E00070B5040009D0606A002540B125616561AC
:1036F000A56294F8510040B10CE0012070BD6068F3
:10370000B0F5827FF4D0E561F2E784F850502046AE
:1037100000F040F8022084F851002068016821F090
:1037200040010160A088218900F4827001F4044105
:103730000843A18901F400610843217C01F00201E2
:103740000843217D01F001010843218B01F4007140
:103750000843217F01F03801084394F8201001F05C
:1037600080010843218D01F400510843216808605D
:10377000A069042101EA1040216848602068C169FD
:1037800021F40061C1616565012084F851000020C9
:1037900070BD000030B585B00024009401940294FF
:1037A000039400681449884223D11448816941F484
:1037B00080518161816901F480510491816941F0F6
:1037C0000401816180690E4D00F004000490B02076
:1037D0000090022001900320039069462846FFF7DD
:1037E00039F84020CDE90004694628460294FFF7E5
:1037F00031F805B030BD000000300140001002403B
:10380000000801407047704770B590F83C20012ACD
:1038100026D0012480F83C40022280F83D20036835
:103820005A689D6822F070060A6832435A600D4B50
:1038300002689A4208D0B2F1804F05D00A4B9A42F2
:1038400002D00A4B9A4204D1496825F080031943FB
:10385000916080F83D40002180F83C10084670BD22
:10386000022070BD002C0140000400400008004010
:1038700010B5040003D094F83D0010B107E001201A
:1038800010BD002084F83C00204600F01FF8022004
:1038900084F83D00211D206801F080FE012084F89D
:1038A000460084F83E0084F83F0084F8400084F825
:1038B000410084F8420084F8430084F8440084F80E
:1038C000450084F83D00002010BD000008B50068E8
:1038D000B0F1804F08D10548C16941F00101C161D3
:1038E000C06900F00100009008BD00000010024017
:1038F00090F83D10012901D001207047022180F885
:103900003D100168CA6842F00102CA6000680B49B4
:10391000884208D0B0F1804F05D00949884202D0D2
:103920000849884204D1816801F00701062903D0C3
:10393000016841F00101016000207047002C014046
:10394000000400400008004070B5044690F83C00B8
:103950000025012817D0012684F83C60022084F855
:103960003D002068826822F0770222F47F42826064
:103970000868502838D00DDC20284FD005DC90B3E3
:10398000102811D14AE0022070BD302846D04028CE
:103990000AD13BE060282FD070280DD0B0F5805FB1
:1039A00003D0B0F5005F12D0012584F83D600020FF
:1039B00084F83C00284670BDCB68D1E9012120681D
:1039C00001F035FE2068816841F0770109E0CB689D
:1039D000D1E90121206801F02AFE2068816841F4C4
:1039E00080418160E1E719E0CA684968206801F018
:1039F000D3FE5021206806E0CA684968206801F0BB
:103A0000DCFE6021206801F01CFECEE7CA68496830
:103A1000206801F0C1FE40212068F4E722680146D9
:103A20001046F0E770472DE9F04104460068C6688B
:103A300005694FF00007A90713D5B10711D5F91E85
:103A4000016101202077206880698007204602D02C
:103A5000FFF7E8FF04E000F0A1F8204600F033F99A
:103A60002777680716D5700714D521686FF0040012
:103A70000861022020772068806910F4407F20468A
:103A800002D0FFF7CFFF04E000F088F8204600F0F6
:103A90001AF92777280715D5300713D521686FF055
:103AA00008000861042020772068C069800720464C
:103AB00002D0FFF7B7FF04E000F070F8204600F0F6
:103AC00002F92777E80616D5F00614D521686FF0BD
:103AD00010000861082020772068C06910F4407F3A
:103AE000204602D0FFF79EFF04E000F057F8204682
:103AF00000F0E9F82777E80708D0F00706D021683A
:103B00006FF001000861204600F064F9280608D52E
:103B1000300606D521686FF0800008612046FFF767
:103B200071FE680608D5700606D521686FF0400062
:103B30000861204600F058F9A8060AD5B00608D555
:103B400021686FF0200008612046BDE8F041FFF7D2
:103B50005ABEBDE8F081000000B585B0002100919B
:103B60000191029103910068B0F1804F10D1094892
:103B7000816941F0040181618069694600F00400B7
:103B8000049002200090019003900348FEF762FE2B
:103B900005B000BD0010024000080140704770B53C
:103BA000044690F83C0000260D4601280FD0012065
:103BB00084F83C006AB1042A1DD0082A2FD00C2AB0
:103BC0003FD00126002084F83C00304670BD022022
:103BD00070BD206801F03EFD2068816941F0080158
:103BE00081612068816921F0040181612068816917
:103BF0002A69114311E0206801F054FD20688169B1
:103C000041F4006181612068816921F480618161F2
:103C1000206881692A6941EA02218161D2E720682E
:103C200001F06CFD2068C16941F00801C1612068A4
:103C3000C16921F00401C1612068C1692A69114389
:103C400011E0206801F086FD2068C16941F400613F
:103C5000C1612068C16921F48061C1612068C169C6
:103C60002A6941EA0221C161ACE710B5040003D022
:103C700094F83D0010B107E0012010BD002084F849
:103C80003C00204600F01EF8022084F83D00211D73
:103C9000206801F083FC012084F8460084F83E008F
:103CA00084F83F0084F8400084F8410084F8420022
:103CB00084F8430084F8440084F8450084F83D000B
:103CC000002010BD7047704710B50446022249B16C
:103CD00004290ED0082913D094F84100012816D0E9
:103CE000012010BD94F83E000128F9D184F83E204F
:103CF0000FE094F83F000128F2D184F83F2008E05B
:103D000094F840000128EBD184F8402001E084F8C9
:103D100041200122206801F07DFC0F492068884283
:103D200003D1426C42F4004242642068884208D0C9
:103D3000B0F1804F05D00949884202D00849884235
:103D400004D1816801F00701062903D0016841F020
:103D500001010160002010BD002C01400004004062
:103D60000008004030B504460D460068002201F00E
:103D700051FC174B41F2111120688A10984209D169
:103D8000036A0B4206D1036A134203D1436C23F446
:103D9000004343642068036A0B4206D1016A114262
:103DA00003D1016821F00101016001203DB1042D22
:103DB00008D0082D09D084F84100002030BD84F8D7
:103DC0003E00FAE784F83F00F7E784F84000F4E7A4
:103DD000002C014000680349884201D1FFF762B816
:103DE00070470000000800407047704770470000AF
:103DF000F8B5016804460868CA684B6910F00F0FEF
:103E00004FF0000559D003F0010602F490773743D4
:103E100065D0C10705D0D10503D5616C41F0010122
:103E20006164410705D5D90703D0616C41F00201F7
:103E30006164810705D5D90703D0616C41F00401A5
:103E40006164010707D502F02001314303D0616CA2
:103E500041F008016164616C00293AD0800604D504
:103E6000900602D5204601F06EFD20684069616C25
:103E7000C0F38010090700D460B3204601F02EFD86
:103E800020684069400621D52068143050E8001FA2
:103E900021F0400140E80012002AF5D1E06BA8B102
:103EA0006D494163E06BFEF739FB002811D0E06BF0
:103EB000416B01B0BDE8F040084783060FD593067B
:103EC0000DD52046BDE8F84001F03DBD2046FFF786
:103ED0008DFFF8BD2046FFF789FF6564F8BD266BAE
:103EE0002023012E7CD1C6067AD5D60678D508685F
:103EF0004868009048694FF00206400640D5E16BE3
:103F0000086840680004000CE8D0A28D8242E5D920
:103F1000E085886920282DD020680C3050E8001FEB
:103F200021F4807140E80012002AF5D12068143095
:103F300050E8001F21F0010140E80012002AF5D1ED
:103F40002068143050E8001F21F0400140E80012C2
:103F5000002AF5D184F84230256320680C3050E8FF
:103F6000001F21F0100140E80012002AF5D1E06B9B
:103F7000FEF7B0FA6663A08DE18D401A81B22AE0A7
:103F8000A08DE18D401A81B2E08D0028A6D00029D5
:103F9000A4D022680C3252E8000F20F4907042E85E
:103FA0000007002FF5D12068143050E8002F22F0D0
:103FB000010240E80027002FF5D184F84230256344
:103FC00020680C3050E8002F22F0100240E8002357
:103FD000002BF5D166632046FFF707FFF8BDFFE72A
:103FE00005062BD5150629D594F841002128F5D1D1
:103FF000A068B0F5805F01D12069B0B1206A411C92
:104000002162216800784860E08C401E0004000CAA
:10401000E084E3D12068C16821F08001C16020689C
:10402000C16841F04001C160D8E7206A0088C0F350
:1040300008004860206A801C2062E5E74006CDD574
:104040005006CBD5CA68204622F04002CA6084F8E8
:10405000413000F0EDF8C1E7DF57000870B504000B
:1040600004D094F84100002510B106E0012070BD95
:1040700084F84050204600F023F8242084F84100C2
:104080002068C16821F40051C160204601F0BCFCE9
:104090002068016921F4904101612068416921F0A3
:1040A0002A0141612068C16841F40051C160656422
:1040B000202084F8410084F842006563002070BD30
:1040C00070B586B0002506460095019502950395CA
:1040D0000068224988423FD12149886940F48040E4
:1040E0008861886900F480400490886940F0040089
:1040F000886188691B4C00F004000490481500900A
:10410000022001900320039069462046FEF7A2FB9F
:104110002015CDE90005694620460295FEF79AFB79
:10412000124C1148C4E900058020C4E90250202047
:104130002561C4E905502046E561FEF7E5FA08B1BE
:10414000FDF7BBFEF4630022052125206662FEF721
:1041500041FF2520FEF730FF06B070BD003801405A
:104160000010024000080140580002405C0200209C
:1041700090F84230202B01D00220704721B11AB1B3
:104180000023036301F09CBC012070477047704717
:104190002DE9F843044690F84100984616460D462E
:1041A000202802D00220BDE8F88385B17EB100202E
:1041B0006064212084F84100FEF74EFCA68481460D
:1041C000E684A0682027B0F5805F02D003E00120DC
:1041D000E9E7206910B12E4600250EE000260CE02C
:1041E0008021204601F0B4FCA8B9C6B116F8010B35
:1041F00021684860E08C401EE084E08C4B464FF024
:104200000002CDF800800028EAD14FF0400120469E
:1042100001F09EFC40B184F841700320C3E735F8FB
:10422000020BC0F30800E3E784F841700020BAE70E
:104230007047FEE701684A69D24352050FD46FF414
:1042400080624A61002140F8301F2022427381734E
:10425000026942F0040202610173012070470020EC
:1042600070470000F8B50446C06A1E460D46174662
:10427000082807D0012805D010F5803F02D0206B18
:10428000122804D12068016841F48071016013464E
:1042900000224FF001112046009600F0B1F840B125
:1042A00020680068C00502D54FF400702064032028
:1042B000F8BD2069B0F5804F0ED00620216800EAD5
:1042C000D51040F0F000086133463A460B492046CD
:1042D00000F0DEF878B902E005F0FE0000E0E8B298
:1042E00021680861054933463A46891F204600F097
:1042F000CFF80028DCD00120F8BD00000800010044
:104300002DE9F843044600680D46DDE90897016889
:104310009846164641F4807101604B4600224FF0EA
:1043200001112046009700F06BF848B12068006842
:10433000C00502D54FF4007020640320BDE8F88367
:10434000216805F0FE0008613B464A4615492046B3
:1043500000F09EF888B920684169806900903A466B
:104360004946204600F0F2F848B1206C042804D1F8
:104370002068016841F4007101600120DEE7F5B2B8
:10438000B8F1010F09D02168300A08613A46494660
:10439000204600F0DBF80028E7D120680561002006
:1043A000CCE700000200010070B516460D46044639
:1043B0001EE02046FFF73EFF08B1012070BD681CDB
:1043C00016D0FEF749FB801BA84200D885B92068AB
:1043D0004069C04340070BD5002044F8300F20212E
:1043E0006173A073216941F0200121612073E4E72A
:1043F00020684069C0434007DBD4002070BD000046
:104400002DE9F047984617460D460446C1F3074686
:10441000DDF820902AE000BFB8F1FF3F26D0FEF77C
:104420001BFBA0EB0901414502D8B8F1000F1DD1DB
:104430002068012E16D0806925EA00000004000CD7
:1044400012D00020B84211D1002044F8300F2021B2
:104450006173A073216941F0200121612073012063
:10446000BDE8F0874069E7E70120EBE72068012E0F
:104470000AD0806925EA00000004000C06D0002064
:10448000B842C9D00020EBE74069F3E70120F7E725
:104490002DE9F047984616460D4604464FF00009B0
:1044A0004FF0200AC1F3074723E020684069C0436A
:1044B000400515D42068016841F40071016021684D
:1044C0006FF480604861C4F8309084F83DA084F8AF
:1044D0003E90216C41F00401216484F83C9021E07D
:1044E000701C06D0FEF7B8FAA0EB0800B04203D863
:1044F00016B1012F1FD021E02068012F15D080694F
:1045000025EA00000004000C18D000BF44F8309FDA
:1045100084F80DA084F80E90216941F020012161FA
:1045200084F80C900120BDE8F087406925EA00007E
:104530000004000CEAD12068406901E0206880692D
:1045400025EA00000004000CAFD1ECE770B5164678
:104550000D4604461EE02046FFF76CFE08B1012020
:1045600070BD681C16D0FEF777FA801BA84200D8F1
:1045700085B920684069C04300060BD5002044F887
:10458000300F20216173A073216941F02001216166
:104590002073E4E720684069C0430006DBD40020B4
:1045A00070BD000000B585B04FF4404000900E484B
:1045B0000190012002900220039069460B48FEF70B
:1045C00049F90B48816941F001018161806900224C
:1045D00000F00100049005212820FEF7FBFC2820B4
:1045E000FEF7EAFC05B000BD0000311000100140EC
:1045F0000010024088B0FFF7D5FF0125DFF8E48006
:10460000394C2F464FF0FF3B4FF480490DF1100A13
:104610005946E06A02F09AFF216B884213D11420B8
:1046200002F0AAF94FF400414046FEF703FA0600F3
:1046300005D1012D03D10121206C02F081FB35460B
:104640000021206B4BE0616B8842E1D1142002F025
:1046500093F949464046FEF7EDF906003CD1012F9B
:104660003AD103F049F9074602E00A2002F084F942
:1046700049464046FEF7DEF90028F6D003F03CF943
:10468000C01BB0F5FA6F09D30020FDF741FC17A25B
:1046900010216846FBF7F6FD17A213E00120FDF795
:1046A00037FCFDF721FCFDF725FC0146E06818B159
:1046B0000023032203F0A2F80CA210216846FBF7A6
:1046C000E1FD0FA210215046FBF7DCFD0023642220
:1046D0006946606902F020FD37460021606B02F0F8
:1046E0003FFF95E7001001400000002066616E5F0B
:1046F0006D6F6465000000006175746F000000005C
:104700006D616E75616C00008AB000F055F8244D43
:104710004FF0FF3705AE0097002301220721286CD8
:1047200002F054FB0446C00711D000F079F81DA236
:10473000102101A8FBF7A6FD1BA210213046FBF7B4
:10474000A1FD0023642201A9686902F0E5FCA0072D
:1047500011D500F05DF813A2102101A8FBF792FD1E
:1047600013A210213046FBF78DFD0023642201A91E
:10477000686902F0D1FC6007CDD500F041F809A2CC
:10478000102101A8FBF77EFD0AA210213046FBF79D
:1047900079FD0023642201A9686902F0BDFCBAE733
:1047A000000000206C656400746F67676C65000032
:1047B0006F6E00006F66660030B50F4885B0816986
:1047C00041F01001816180694FF4005400F0100045
:1047D0000490002002900120CDE900400220074D06
:1047E000039069462846FEF735F800222146284600
:1047F000FEF72DF905B030BD001002400010014059
:1048000000224FF400510148FEF721B90010014089
:10481000012251030148FEF71AB9000000100140BF
:104820004FF400510148FEF70AB9000000100140A2
:1048300001480068FDF7A8BBDC00002070B5114CF2
:1048400005462068FDF7E6FD4FF4FA712068FDF794
:1048500043FD10B14FF0FF3070BD2068FDF77EFCC6
:10486000094C03F099FF214603F098FE4FF07E516A
:1048700004F08AF8054903F0BBFF03F051FF2860FC
:10488000002070BDDC00002000F07F450000C84221
:1048900070B541F2883422461AA11BA0FDF786FAB2
:1048A00040F6B8352A4617A119A0FDF77FFA2A4627
:1048B00014A11AA0FDF77AFA2A4612A11BA0FDF74F
:1048C00075FA2A460FA12048FDF770FA22460DA17D
:1048D0001EA0FDF76BFA2A460AA127A0FDF766FA8B
:1048E0002A4608A134A0FDF761FA2A4641A14348AF
:1048F000FDF75CFA2A463FA14148FDF757FA002030
:1049000070BD00004F4B000041542B525354000027
:1049100041542B43574D4F44453D310041542B43A7
:1049200057444843503D312C3100000041542B4343
:10493000574A41503D226B6C6565222C22416263CF
:1049400064313030372200008C93000841542B4DE5
:10495000515454434F4E4E3D302C226D717474733C
:104960002E6865636C6F7564732E636F6D222C31D6
:104970003838332C3100000041542B4D51545453DE
:1049800055423D302C22247379732F7346355030B5
:10499000707A3757472F746573742F7468696E6720
:1049A0002F70726F70657274792F706F73742F72BD
:1049B00065706C79222C310041542B4D5154545365
:1049C00055423D302C22247379732F734635503075
:1049D000707A3757472F746573742F7468696E67E0
:1049E0002F70726F70657274792F736574222C3119
:1049F00000000000737563636573730038940008EA
:104A0000AC94000870B5214CAAB000252278B2B150
:104A10006278521CD3B26370CDE900011C4A9C211C
:104A200002A8FBF72FFC1B4E4FF4FA61306802F02E
:104A300097FD012805D0012528462AB070BD012028
:104A4000FBE740F6B83214A102A8FDF7AFF9010068
:104A50004FF0000011D0A1780125491CC9B2A17006
:104A600003290BD32070A0700C48006830B10023DC
:104A70001A46194602F0C2FE00E0A07000231A4652
:104A80001946306802F048FBD6E70000E800002035
:104A9000249500083C0000204F4B00000800002037
:104AA0003EB5002411480094019402940E4984609C
:104AB000016004730475012505614FF460214460B1
:104AC000C161FDF74FFB08B1FDF7F7F90520009430
:104AD000CDE9015069460548FDF7C2FA002801D02A
:104AE000FDF7EBF93EBD000000240140F00000207E
:104AF000094808B5416941F001014161406900225E
:104B000000F00100009005210F20FEF763FABDE8D8
:104B100008400F20FEF750BA0010024010B50322E3
:104B20000021012002F060FA194C032200212063C9
:104B3000012002F059FA606303220021012002F0F3
:104B400053FAA063012002F040FAE06300220C2136
:104B5000052002F049FAA062022002F041FA014663
:104B6000E062206B02F020FAE16A606B02F01CFA4E
:104B7000002220210A2002F037FA6061054A002154
:104B8000054801F0C9F8606402F0CCF8206410BD5B
:104B9000000000208C8A0008655300082DE9F047CA
:104BA00086B00024354800940194029403948169EE
:104BB00041F010018161816901F010010491816966
:104BC00041F020018161816901F020010491816936
:104BD00041F004018161816901F00401049181695E
:104BE00041F0080181618069DFF8948000F00800DD
:104BF0004FF400550490002229464046FDF727FF58
:104C0000DFF8809000220C214846FDF720FFDFF8F6
:104C100078A0AF00002239465046FDF718FF012268
:104C200011024846FDF713FF009502260125039661
:104C3000CDE9015469464046FDF70CFE4FF4404073
:104C400000901248CDE9010569464046FDF702FE95
:104C50004FF48670CDE90005CDE902466946484625
:104C6000FDF7F8FD00970396CDE9015469465046DB
:104C7000FDF7F0FD06B0BDE8F0870000001002402F
:104C80000010014000080140000C014000003110FC
:104C90000D4810B50B4901600C49416000214FF4EB
:104CA00080428160C0E9031241618161C16101629A
:104CB000FDF7D8FE002803D0BDE81040FDF7FDB891
:104CC00010BD00000054004020010020A08601001B
:104CD000104810B50E4901604FF482714160002107
:104CE0008160C1604FF480220161C0E90512182281
:104CF000C0E90721416281620A21C162FEF7F0FC2E
:104D0000002803D0BDE81040FDF7D7B810BD000063
:104D1000003001407401002010B58EB000240794CB
:104D2000089409940A940B941C2168460C94FBF790
:104D300070FC1D484FF0804101604721C0E901141B
:104D40006321C0E903148461FEF792FD08B1FDF709
:104D5000B4F84FF48050079007A91348FEF7F4FD0C
:104D600008B1FDF7AAF81048FEF77FFF08B1FDF77C
:104D7000A4F80B940BA90C480C94FEF745FD08B160
:104D8000FDF79BF86020CDE90004029404226946F7
:104D900005480494FEF703FF08B1FDF78EF80248BA
:104DA000FEF7DAFE0EB010BDCC0100200C4810B5A5
:104DB0000A4901604FF4E1314160002181600C2219
:104DC000C160C0E904128161C161FFF747F90028A1
:104DD00003D0BDE81040FDF770B810BD00380140A9
:104DE00014020020FEE7000070B5184E86B00022C5
:104DF00002213046FDF72BFE002204213046FDF74C
:104E000026FE002208213046FDF721FE1049886960
:104E100040F004008861886902240025009400F0B5
:104E20000400CDE90145CDE9034069463046FDF770
:104E300011FD0C20009001200394CDE90105694685
:104E40003046FDF707FD06B070BD000000080140C8
:104E50000010024030B587B005461C216846FBF7BC
:104E6000D8FB60200021194C02910491009035B1CB
:104E7000012D07D0022D20D0032D0FD120E00022DC
:104E8000019102E04FF496701CE004212046FDF7EA
:104E9000DEFD002208212046FDF7D9FD04210C4843
:104EA000FEF760FF042269460948FEF778FE0421F8
:104EB0000748FEF709FF07B030BD4FF4167001E058
:104EC0004FF4617001220190DFE70000000801400B
:104ED000CC010020FEE710B5A0B000248021684678
:104EE000FBF797FB0021204600F042F9802168463D
:104EF00000F072F9641CE4B2082CF3D320B010BDAA
:104F000010B50224202000F053F9204600F050F99B
:104F10001F4804703F24A82000F04AF9204600F002
:104F200047F90024D32000F043F9204600F040F96F
:104F3000402000F03DF9A12000F03AF9C82000F02F
:104F400037F90021084600F0FDF87F24812000F0A9
:104F50002FF9204600F02CF9A42000F029F9A62012
:104F600000F026F9D52000F023F9802000F020F988
:104F70008D2000F01DF9142000F01AF90021012005
:104F800000F0E0F8BDE81040AF2000F011B90000DB
:104F9000E00000202DE9F0471F4615468A460646E8
:104FA00012F1FF4F06D324A200F089F8761C85F099
:104FB0000045F6B2284603F0B3FB044602465146CC
:104FC000304600F03DF8200000D5604201210A2261
:104FD00003E000BF90FBF2F0491C0A28FADA7018CF
:104FE000C6B22E225146304600F084F8761CF6B246
:104FF000204603F0D1FB294603F0C6FC0024DFF86D
:105000003C9014E0494603F0F3FB804603F088FB34
:10501000054602465146304600F012F8761CF6B2BC
:10502000284603F0B9FB414603F0AEFC641CBC42C9
:10503000E8DBBDE8F08700002D0000000000204103
:10504000F0B589B00024074620466D4604AE002A1C
:1050500008DA4FF02D038DF800304FF00104C2F153
:10506000000214E006D14FF030008DF800004FF040
:1050700001041AE04FF00A0C92FBFCF30CFB132323
:1050800092FBFCF203F13003335400F10100002ADB
:10509000F0D108E006EB0002A0F1010012F8012CAB
:1050A0002A5504F101040028F4D14FF000002855DE
:1050B0002A46384600F003F809B02046F0BD2DE935
:1050C000F04117460E46044600250DE031462046C5
:1050D00000F010F8641CE4B20F2C02D90024B61CB6
:1050E000F6B2072E03D86D1C7A5D002AEED1284651
:1050F000BDE8F08170B51546C206160E0C460729AC
:105100001DD80F281BD8A5F120005F2800D320252B
:105110003146204600F02CF80948082100EB051024
:10512000054600F059F8641CE0B2314600F020F862
:1051300005F10800BDE87040082100F04DB870BDD1
:10514000EC8A000870B50C46050001D0012D0ED187
:105150000CB1012C0BD1DA2000F02AF8280100EB69
:105160004410BDE87040801CC0B200F021B870BD92
:1051700070B50E4D0C462978022905D1072803D8B1
:10518000B030C0B200F014F8287802280CD17F2C7F
:105190000AD804F00F0000F00BF8102000EB1410F8
:1051A000BDE8704000F004B870BD0000E0000020D1
:1051B0001CB500218DF804108DF805004FF4FA702D
:1051C00000900448022301AA78214068FDF70EFDF3
:1051D0001CBD0000E00000200EB559B14FF4FA727A
:1051E0008DE8070004480123402278214068FDF73C
:1051F00093FD0EBD00200EBDE000002088B00E4DD6
:105200004FF0FF3604AC32466946686902F002F995
:105210000128F8D13146E86B02F0A2F92146684630
:10522000FFF7F0FB00231A461946E86B01F074FF04
:10523000642001F0A1FBE6E70000002092B0FCF73B
:10524000E5FBFFF7F5FA3C4C4FF47A750AA8FCF73A
:1052500051FC002844D18DF83000DDE90A01CDE988
:105260000D01002364220CA9A06A01F055FF33A2AE
:10527000102102A8FBF706F80E9803F001F9CDE91A
:10528000000106A82FA210210646FAF7FBFF002313
:10529000642202A9606901F03FFF2CA2102102A83C
:1052A000FAF7F0FF0D9803F0EBF8CDE9000125A225
:1052B00010213046FAF7E6FF0023642202A9606954
:1052C00001F02AFF66685EB122490B9803F090FA5C
:1052D00003F042FA014600230322304602F08EFA20
:1052E0000FA8FFF7ABFA10BB01208DF830000F9824
:1052F0000D90002364220CA9A06A01F00DFF16A2F4
:1053000010216846FAF7BEFF15A2102104A80D9BD4
:10531000FAF7B8FF002364226946606901F0FCFED9
:10532000206820B1002303220F9902F067FA284673
:1053300001F022FB8AE700000000002074656D7018
:1053400000000000252E31660000000068756D69C0
:1053500000000000000020416C69676874000000D4
:10536000256400001CB535490120CDE9000100236A
:10537000802233A1354802F0E9F930480425001DA8
:10538000CDE900500023802231A1344802F0DEF93B
:105390002A4903200831CDE900010023802230A1F1
:1053A000334802F0D3F9254805240C30CDE90040FC
:1053B000002380222FA1324802F0C8F91F480023A1
:1053C0001838CDE9004080222EA1334802F0BEF902
:1053D0001A4800231438CDE9004080222FA1344818
:1053E00002F0B4F9154800230C38CDE900408022C2
:1053F0002CA1304802F0AAF91048AC010838CDE9D8
:105400000050002322462CA12E4802F09FF90B49A0
:1054100006201039CDE90001002322462AA12F4899
:1054200002F094F9012804D02DA206210020FFF7F4
:1054300046FE002001F0C6FAFEE70000180000203A
:105440004C45445F5461736B00000000094700083D
:1054500053656E736F725F5461736B003D52000849
:10546000446973706C61795F5461736B0000000074
:10547000491C00084B65795F5461736B00000000A4
:10548000F5450008436F6E74726F6C5F4C65645F26
:105490005461736B0000000069190008436F6E745B
:1054A000726F6C5F46616E5F5461736B0000000049
:1054B000C5180008311F0008506F73745F54617382
:1054C0006B000000FD510008436F6E6E6563745FF2
:1054D000576966695F5461736B0000007D180008AE
:1054E0005461736B204661696C65642100000000A3
:1054F00010B54FF0E020006902F0F0F9012803D068
:10550000BDE8104001F03ABD10BD30B593B0282180
:105510006846FBF77EF814210AA8FBF77AF8002505
:1055200001200F9510951195010412958DE8230027
:1055300004904FF4E010CDE9081002240794684667
:10554000FDF73EFF08B172B6FEE70AA90F2081E819
:1055500031004FF48060CDE90D0502210AA8FDF766
:1055600033FE08B172B6FEE74FF4004011900F947D
:105570000FA8FDF7B3FD002801D072B6FEE713B007
:1055800030BD70470148FEF74EBA0000CC01002044
:105590000148FEF748BA0000A0020020F0B50268FA
:1055A000194B1A4C1A4D4FF08047984205D0B8421B
:1055B00003D0A04201D0A84203D122F070064A686D
:1055C0003243984205D0B84203D0A04201D0A8424D
:1055D00003D122F44074CA6822434C6922F080024D
:1055E000224302608A68C2620A688262984201D1DC
:1055F00009690163012141610169C90703D001699A
:1056000021F001010161F0BD002C014000040040C7
:105610000008004010B501F01F030121046A994001
:105620008C430462016A9A401143016210BD10B5B7
:10563000846842EA032224F47F440A4322438260BE
:1056400010BD826822F070020A4342F007018160B7
:105650007047000030B5036A026A22F0010202625C
:105660004268846924F073050C682C4323F002051A
:105670008B682B430A4DA8420BD123F00805CB6859
:1056800022F440722B434D6923F0040315438A69C9
:105690002A434260846149684163036230BD00006F
:1056A000002C014030B5026A036A23F01003036244
:1056B000436884690D6824F4E64444EA05248D684F
:1056C00022F0200242EA05120B4DA8420ED1CD680D
:1056D00022F0800242EA05124D6923F4406343EA56
:1056E00085038D6922F0400243EA850343608461AB
:1056F00049688163026230BD002C014030B5036A05
:10570000026A22F4807202624268C46923F4007360
:1057100024F073050C682C438D6843EA05230C4D77
:10572000A8420ED1CD6823F4006343EA05234D69F6
:1057300022F4405242EA05128D6923F4806342EA62
:1057400005124260C4614968C163036230BD000054
:10575000002C014030B5046A026A22F480520262D1
:105760004268C3690D6823F4E64343EA05238D6864
:1057700024F4005444EA0534064DA84204D14D698E
:1057800022F4804242EA85124260C36149680164A2
:10579000046230BD002C014010B5036A046A24F095
:1057A00001040462846924F0F00444EA021423F042
:1057B0000A020A438461026210BD10B5036A046ADA
:1057C00024F010040462846923F0A00324F47044DC
:1057D00044EA023243EA01118261016210BD10B550
:1057E000406A0021C185C184FEF700FB10BD70B581
:1057F000446A2068406994F84110C0F3C010002545
:10580000212904D118B1E584204600F08EF82068E3
:10581000406994F84210C0F38010222904D118B1D5
:10582000E585204600F05AF8606C40F01000606496
:105830002046FEF7DBFA70BD10B50146406A0968E4
:1058400009684FF0000289062ED4C28501680C3128
:1058500051E8003F23F4807341E80034002CF5D177
:105860000168143151E8003F23F0010341E800349E
:10587000002CF5D10168143151E8003F23F04003BA
:1058800041E80034002CF5D1202180F84210016B52
:10589000012909D101680C3151E8003F23F01003C0
:1058A00041E80034002CF5D14263016B012902D09C
:1058B000FEF76CFC10BD818DFEF797FA10BD10B598
:1058C000406A01214163016B012902D0FEF75FFCB0
:1058D00010BD818D4908FEF788FA10BD01680C31B2
:1058E00051E8002F22F4907241E80023002BF5D1FB
:1058F0000168143151E8002F22F0010241E8002331
:10590000002BF5D1016B012909D101680C3151E857
:10591000002F22F0100241E80023002BF5D12021B6
:1059200080F8421000210163704701680C3151E892
:10593000002F22F0C00241E80023002BF5D12021E6
:1059400080F84110704708B590F84210222901D024
:10595000022008BD82684FF480539A4201D1016948
:1059600021B1816A9A421BD04AB10AE00268816A79
:105970005268C2F308020A80816A891C08E0026941
:1059800072B10268526802F07F020A70816A491C93
:105990008162C18D491E0904090CC18503D01BE039
:1059A00002685268F1E70168CA6822F02002CA6002
:1059B0000168CA6822F48072CA6001684A6922F0EC
:1059C00001024A61202180F8421000214163026BEC
:1059D000012A03D0FEF7DAFB002008BD016301684D
:1059E0000C3151E8002F22F0100241E80023002B77
:1059F000F5D101680A68D20602D50A6849680091A3
:105A0000818DFEF7F2F9E7E770B504460068016999
:105A1000E26821F44051114301612169A068084303
:105A2000616908432168CA6841F20C639A430243E2
:105A3000CA6020684169A26921F440711143416143
:105A40001E492068884202D1FDF784FC01E0FDF781
:105A500071FC00EBC00101EB001260686421800062
:105A6000B2FBF0F3B3FBF1F36FF018067343B2FB34
:105A7000F0F5B2FBF0F605EB8305322303EB0515D9
:105A8000B5FBF1F5B6FBF1F605F0F00505EB0615F3
:105A9000B2FBF0F6B2FBF0F0B0FBF1F06FF01802E1
:105AA000504306EB800003EB0010B0FBF1F02168DF
:105AB00000F00F002844886070BD000000380140ED
:105AC00038B5816204468285002013466064222234
:105AD00084F84220E56B1B4AAA62E56B1A4AEA6227
