:020000040800F2
:10000000B821002021020008272F00080D27000832
:10001000252F0008410500084938000800000000AD
:10002000000000000000000000000000890100083E
:10003000B907000800000000CD0100089133000856
:100040003B0200083B0200083B0200083B0200089C
:100050003B0200083B0200083B0200083B0200088C
:100060003B0200083B0200083B0200083B0200087C
:100070003B0200083B0200083B0200083B0200086C
:100080003B0200083B0200083B0200083B0200085C
:100090003B0200083B0200083B0200083B0200084C
:1000A0003B0200083B0200083B0200083B0200083C
:1000B000253400083B020008313400083B020008E8
:1000C0003B0200083B0200083B0200083B0200081C
:1000D0003B0200083D3800083B0200083B020008D4
:1000E0007D0800083B0200083B02000800F002F80F
:1000F00000F03AF80AA090E8000C82448344AAF188
:100100000107DA4501D100F02FF8AFF2090EBAE885
:100110000F0013F0010F18BFFB1A43F0010318473B
:100120005C6B00007C6B0000103A24BF78C878C17B
:10013000FAD8520724BF30C830C144BF04680C60ED
:10014000704700000023002400250026103A28BF35
:1001500078C1FBD8520728BF30C148BF0B60704739
:100160001FB51FBD10B510BD00F045F91146FFF7D2
:10017000F7FF03F07BFB00F063F903B4FFF7F2FF36
:1001800003BC00F06BF90000224B19680868B0E866
:10019000F00F80F30988BFF36F8F4FF0000080F3FA
:1001A00011884EF00D0E70470000000006480068F0
:1001B000006880F3088862B661B6BFF34F8FBFF363
:1001C0006F8F00DF00BF00BF08ED00E0EFF3098094
:1001D000BFF36F8F0F4B1A6820E9F00F106008B55E
:1001E0004FF0500080F31188BFF34F8FBFF36F8F34
:1001F00004F06CFB4FF0000080F31188BDE808406C
:1002000019680868B0E8F00F80F30988BFF36F8FB2
:10021000704700BF3C000020EFF3058070470000EE
:100220000948804709480047FEE7FEE7FEE7FEE78A
:10023000FEE7FEE7FEE7FEE7FEE7FEE704480549C6
:10024000054A064B7047000023340008ED00000803
:10025000B81B0020B8210020B81D0020B81D0020C8
:10026000032A40F2308010F0030C00F0158011F8E2
:10027000013BBCF1020F624498BF11F801CB00F8BA
:10028000013B38BF11F8013BA2F1040298BF00F80E
:1002900001CB38BF00F8013B11F0030300F0578099
:1002A000083AC0F0088051F8043B083A51F804CBF2
:1002B000A0E80810F5E7121D5CBF51F8043B40F8B8
:1002C000043BAFF30080D20724BF11F8013B11F8C3
:1002D00001CB48BF11F8012B24BF00F8013B00F807
:1002E00001CB48BF00F8012B704702F0FF0343EA3F
:1002F000032242EA024200F05EB84FF0000200B56D
:10030000134694469646203922BFA0E80C50A0E838
:100310000C50B1F12001BFF4F7AF090728BFA0E8E6
:100320000C5048BF0CC05DF804EB890028BF40F8B2
:10033000042B08BF704748BF20F8022B11F0804FF4
:1003400018BF00F8012B704770477047704710B511
:10035000203AC0F00B80B1E81850203AA0E81850BD
:10036000B1E81850A0E81850BFF4F5AF5FEA027C7E
:1003700024BFB1E81850A0E8185044BF18C918C0ED
:10038000BDE810405FEA827C24BF51F8043B40F88E
:10039000043B08BF7047D20728BF31F8023B48BF73
:1003A00011F8012B28BF20F8023B48BF00F8012BB1
:1003B00070474FF000020429C0F0128010F0030CC7
:1003C0003FF49DAFCCF1040CBCF1020F18BF00F854
:1003D000012BA8BF20F8022BA1EB0C01FFF78FBF68
:1003E0005FEAC17C24BF00F8012B00F8012B48BF55
:1003F00000F8012B7047754600F02CF8AE4605005A
:100400006946534620F00700854618B020B5FFF72F
:1004100015FFBDE820404FF000064FF000074FF0F9
:1004200000084FF0000B21F00701AC46ACE8C00912
:10043000ACE8C009ACE8C009ACE8C0098D4670471B
:1004400010B50446AFF300802046BDE81040FFF72A
:1004500094BE000000487047541B0020014918203A
:10046000ABBEFEE7260002007047000070B50446F0
:1004700000688168C943C90717D1816821F001016B
:10048000816000F053FE05460AE000BF00F04EFE1A
:10049000401B022804D920688068C043C00706D0EA
:1004A00020688068C043C007F0D0002070BDA06AFB
:1004B00040F01000A062E06A40F00100E06201201C
:1004C00070BD0000F8B500260446009600688168FB
:1004D000C943C9072DD0816841F0010181601648E8
:1004E00016490068B0FBF1F000E0401E00900028C3
:1004F000FBD100F01BFE054616E000BF00F016FE23
:10050000401B022810D920688068C043C0070BD068
:10051000A06A40F01000A062E06A40F00100E062D2
:1005200084F824600120F8BD20688068C043C007BB
:10053000E4D10020F8BD00003800002040420F0048
:10054000FEE7000008B54FF47A750B4CAE004FF093
:10055000FF3739463B466A46002005F033F80098DD
:10056000A84201D2042102E0B042F2D90221606A1D
:1005700004F0ECF9EDE70000000000207FB5012059
:1005800000244FF480750290CDE900540220164EED
:1005900003906946304600F0C7FC04E0641CA4B236
:1005A000012000F00BF92946304600F0ADFD10B1F6
:1005B000642CF3D30FE0642C0DD2002404E0641CFF
:1005C000A4B2012000F0FAF82946304600F09CFD64
:1005D00020B1642C05D3012004B070BD642CEED38F
:1005E000F9E70020F8E70000000801407FB50F4858
:1005F000816941F00401816180694FF4807400F0E9
:1006000004000090002002900120CDE9004002206B
:10061000074D03906946284600F086FC04B0214649
:100620002846BDE87040012200F07BBD001002406A
:10063000000801402DE9F041074600244FF4807581
:10064000184E04E0641CA4B2012000F0B7F829465B
:10065000304600F059FD10B1642CF3D30FE0642C48
:100660000DD2002404E0641CA4B2012000F0A6F81E
:100670002946304600F048FD20B1642C05D3012006
:10068000BDE8F081642CEED3F9E7282000F096F85D
:100690002946304600F038FD00B1012038700020B6
:1006A000EEE7000000080140F8B5002506462C469C
:1006B0006846FFF7BFFF01280AD06806050E9DF8BF
:1006C0000000641C0543E4B2082CF1D3357000200F
:1006D000F8BD00002DE9FC41054600202860686057
:1006E00000F050F8FFF74AFFF0BB00246E463019C7
:1006F000FFF7DAFF01283FD0641CE4B2052CF6D3E3
:100700009DF800109DF801009DF802209DF803302F
:1007100001441A4411449DF80420C9B28A422DD1E3
:1007200005F042FB164E0022334605F0E5F9074678
:100730000C469DF8000005F037FB3A46234605F0CD
:1007400033F905F0FFF828609DF8030005F02CFB55
:100750000022334605F0D0F906460C469DF802000B
:1007600005F022FB324600E008E0234605F01CF9C4
:1007700005F0E8F868600020BDE8FC810120FBE797
:100780000000244070B5FFF731FF0A4D4FF480742C
:1007900000222146284600F0C4FC142000F092FB01
:1007A00001222146284600F0BCFCBDE87040142020
:1007B00000F004B8000801407047000030B50C4A52
:1007C00000211368DC6A4FF47A726043B0FBF2F5E3
:1007D0005A6A586A9042FCD002D9A0EB020202E0A9
:1007E000A4EB0202024411440246A942F1D330BDF7
:1007F000340200200EB502F097FB002118A2084633
:1008000002F087FC044618A20221002002F081FCBD
:1008100017A20421002002F07CFC174E05464FF081
:10082000FF373A466946706904F0F0FB0128F8D1B9
:100830009DF8000038B10128F3D1E8B20421019AF3
:1008400002F028FCEDE7E0B201230021029A02F059
:10085000CBFBE0B201230221019A02F0C5FBE0E7E5
:1008600074656D703A00000068756D693A000000AB
:100870006C696768743A00000000002010B54FF4FE
:10088000804000F045FBBDE810404FF4004000F010
:100890003FBB72B6FEE70000F8B5002504460095A0
:1008A00090F8240001280BD0012084F82400204671
:1008B000FFF7DCFD2046FFF705FE060002D050E002
:1008C0000220F8BDA06A20F4885040F00200A06227
:1008D000022000F01BFF25490968B1FBF0F0400041
:1008E00000E0401E00900028FBD12068816841F0A4
:1008F0000801816000F01AFC074608E000F016FCD1
:10090000C01B0A2803D920688068000715D4206816
:1009100080680007F2D42068816841F0040181609A
:1009200000F004FC074612E000F000FCC01B0A289F
:100930000DD920688068400709D5A06A20F0020020
:1009400040F01000A06284F824500120F8BD206817
:1009500080684007E8D4A06A20F0020040F001005F
:10096000A06284F824503046F8BD00003800002012
:10097000F8B50024009490F824202546012A12D0CE
:10098000012280F824204A681F23072A0DD2066816
:10099000776B521E02EB820293409F430B68934099
:1009A0001F43776319E00220F8BD06680D2A0AD2BA
:1009B000376BD21F02EB820293409F430B68934038
:1009C0001F43376309E0F76A0D3A02EB8202934056
:1009D0009F430B6893401F43F7620A68072306682A
:1009E0000A2A0AD3F7680A3A02EB420293409F436D
:1009F0008B6893401F43F76008E0376902EB4202BF
:100A000093409F438B6893401F4337610A68102AC5
:100A100001D0112A20D1124B02689A4217D1936853
:100A20001B0219D4936843F40003936009681029EA
:100A300012D10C490C4A0968B1FBF2F101EB8101BA
:100A4000490000E0491E00910029FBD104E0816AC1
:100A500041F020018162012480F824502046F8BD35
:100A6000002401403800002040420F000068C06CA4
:100A7000704700002DE9F0414FF0000704003D46AB
:100A80007ED0A06A002628B9E66284F82460204659
:100A900000F07EF82046FFF7E9FCA16AC90600D401
:100AA00020B1A06A40F01000A06269E0A16A21F4C0
:100AB000885141F00201A1626268E169237B0A4327
:100AC00047EA43010A43A1684FF48077B94209D04D
:100AD000012907D05FF0000194F814C0BCF1010FA8
:100AE00002D00AE03946F7E7F3B1A36A43F02003E6
:100AF000A362E36A43F00103E3622368D3F804C00E
:100B00002CF4694C4CEA010CC3F804C021688B68D2
:100B1000DFF870C003EA0C0313438B60A168B9428D
:100B20000BD0012909D00CE0DFF85CC0A3690CEB05
:100B300043330B4343F40061DFE7218A0D05A5F53C
:100B400080152168CB6A23F470032B43CB622168A4
:100B500089680E4B1940914208D1E662A16A21F0E2
:100B6000020141F00101A162BDE8F081A06A20F01C
:100B7000020040F01000A062E06A40F00100E06274
:100B80000120F1E7FDF7E1FF00E0FFFFFE0E1FFF90
:100B900000B585B000210091019102910391006898
:100BA0000E49884218D10E48816941F40071816173
:100BB000816901F400710491816941F0040181614E
:100BC0008069694600F00400049001200090032031
:100BD0000190044800F0A8F905B000BD00240140D0
:100BE00000100240000801402DE9F84300270D469F
:100BF0000446009700F09AFA804620688168C9058B
:100C000008D5A06A40F02000A06284F8247001207A
:100C1000BDE8F8834168C90503D4C06A10F4700FB9
:100C20002AD0022000F072FD3B490968B1FBF0F6C2
:100C30002068036939490B424FEA61014FEAA1126A
:100C40001FD1C3684FEA611C13EA0C0F19D1036965
:100C50000B4225D1C068104222D1142023E0681C29
:100C60000AD02DB100F062FAA0EB0800A84203D927
:100C700020680068800725D5206800688007EED5C9
:100C80002DE003690B4202D1C168114206D002690E
:100C900023490A4206D1C068084203D1542002E029
:100CA000292000E0FC204643009816E0681C11D083
:100CB0002DB100F03BFAA0EB0800A8420AD9009839
:100CC000B04207D2A06A40F00400A06284F8247009
:100CD00003209DE70098401C0090B042E6D32168B5
:100CE0006FF012000860A06A40F40070A0622068F3
:100CF0008068C0F3424007280CD1207B50B9A06A1D
:100D000020F48070A062A06AC00403D4A06A40F0FE
:100D10000100A06200207BE73800002024499224D3
:100D20004992240070B5044690F8240001280DD0A3
:100D3000012084F824002046FFF7C4FB02004FF096
:100D4000000005D084F82400104670BD022070BD5C
:100D5000A16A40F20123994341F48071A1621F4DC1
:100D600023681F49AB4218D10E6816F4702F14D0B7
:100D7000A66A46F48016A6620E68760505D5A66AB0
:100D800026F4005646F48056A662A66AF6040AD5F2
:100D9000E66A26F00606E66206E0A66A26F48016F3
:100DA000A6625E68E9E7E06284F824006FF0020062
:100DB000186020688368C3F34243072B05D1A8421B
:100DC00008D1096811F4702F04D0816841F48011B2
:100DD0008160B9E7816841F4A001F9E7002801408A
:100DE0000424014010B590F821100022022905D0FA
:100DF0000421816380F82020012010BD01680B6868
:100E000023F00E030B6001680B6823F001030B60F5
:100E100090F84030C46B012101FA03F3636080F85D
:100E2000211080F82020104610BD000010B590F869
:100E300021100024022903D00421816301243DE014
:100E400001680A6822F00E020A6001680A6822F04E
:100E500001020A601A4A0168914201D1012121E090
:100E6000174A1432914201D110211BE0144A283252
:100E7000914201D1891515E0114A3C32914201D1CC
:100E800089140FE00E4A5032914202D14FF4803162
:100E900008E00B4A6432914202D14FF4801101E024
:100EA0004FF08071064A083A5160012180F8211004
:100EB000002180F82010416B01B18847204610BD09
:100EC0000800024070B5044600F030F90546601C89
:100ED00002D004480078044400F028F9401BA042E6
:100EE000FAD370BD2C00002008B50021074A0091FC
:100EF000B0F5804F05D0B0F5004F06D16946D069F6
:100F000001E06946106A04F02AF808BD00000020DC
:100F1000044910B50A68024202D00860FFF7E4FFF6
:100F200010BD0000140401402DE9F84FDFF8B8911E
:100F30000024A9F1040B23460F2709F1040AABF1A1
:100F4000040EC9E00125A5402A40AA427DD1674E82
:100F5000D1F804C0ACEB0608B44532D014DCBCF1C7
:100F6000030F3AD009DCBCF1000F2AD0BCF1010F0D
:100F70001CD0BCF1020F31D11DE0BCF1110F17D014
:100F8000BCF1120F2AD119E0B8F5881F19D006DC80
:100F9000B8F5803F15D0B8F5801F1FD111E0B8F526
:100FA000001F0ED0B8F5041F18D10AE0CB6815E079
:100FB000CB681B1D12E0CB6808330FE0CB680C3305
:100FC0000CE08B682BB1012B4FF0080303D0456177
:100FD00004E0042302E0056100E00023FF2A01D8B9
:100FE000064601E000F104064FEA840501D9A5F1A7
:100FF0002005D6F8008007FA05FC28EA0C0803FA59
:1010000005F548EA0508C6F800804D68ED0062D590
:10101000374DAE6946F00106AE61AD6924F00306B6
:1010200005F001050095334D06EB050CDCF8085082
:10103000A607360F07FA06F825EA0805DFF8B88094
:10104000404503D14FF0000817E044E0DFF8AC80E2
:10105000404502D14FF001080FE0DFF8A480404581
:1010600002D14FF0020808E0DFF89880404502D135
:101070004FF0030801E04FF0040808FA06F848EAC8
:101080000508CCF808804D68D9F80060ED024D469F
:1010900001D5164300E096432E604D68DAF80060F3
:1010A000AD02554601D5164300E096432E604D68CB
:1010B000DBF80060AD035D4601D5164300E09643C2
:1010C0002E604D68DEF80060ED03754601D51643CD
:1010D00000E096432E60641C0D682A46E5407FF4CC
:1010E00031AFBDE8F88F0000080401400000111086
:1010F000001002400000014000080140000C0140C7
:1011000000100140001401408068084000D0012018
:101110007047C26821EA02030A4043EA02410161C2
:1011200070470AB1016170470904FBE70148806814
:10113000704700002C00002070B5040025D094F802
:101140003D00002520B984F83C50204600F0E6F927
:10115000242084F83D002068016821F0010101602D
:101160002068016841F4004101602068016821F4B1
:101170000041016000F048FC4D4A6168914201D88D
:101180004C4900E04C49884201D2012070BD4B49D6
:101190002368B0FBF1F15E6826F03F060E435E6007
:1011A0006368934206D94FF4967359434FF47A73A8
:1011B000B1FBF3F12368491C1E6A26F03F06314358
:1011C00019626168914210D84900401EB0FBF1F2EB
:1011D000521CC2F30B02042A01D2042022E0B0FB0D
:1011E000F1F0401CC0F30B001CE0A268F2B301EB6D
:1011F000C10303EB0116431EB3FBF6F35B1C43F480
:1012000080431B0549D092B301EBC10202EB0111EF
:10121000401EB0FBF1F0401CC0F30B0040F48040D6
:1012200040F400402168CA694CF6FF739A431043AA
:10123000C861D4E9071001432068026822F0C002A7
:1012400011430160D4E9030101432068826848F238
:10125000FF339A4311438160D4E9050108432168B3
:10126000CA6822F0FF021043C86001E00EE016E0F9
:101270002068016841F0010101602564202084F8A4
:101280003D00256384F83E50002070BD01EB41060F
:10129000431EB3FBF6F35B1CB3E70120C2E701EB8F
:1012A0004101401EB0FBF1F0401CC0F30B00B7E75A
:1012B000A086010080841E0000093D0040420F000E
:1012C0002DE9F84F1F4690468A460446DDF82890DF
:1012D000FFF72CFF054694F83D0020287FD1192305
:1012E000012240492046009501F0F6FA002876D107
:1012F00094F83C00012872D0012084F83C0020685A
:101300000168C90703D1016841F00101016020684B
:10131000016821F400610160212084F83D00102063
:1013200084F83E0000262664C4F824806785608D1A
:1013300020852D48E0622B464A465146204601F062
:10134000FDF990B9206841698069009036E02A462D
:101350004946204601F066FB50B1206C042804D1B8
:101360002068016841F4007101600120BDE8F88F38
:10137000606A216800780861606A401C6062618D63
:10138000491E6185218D491E89B2218522685369D4
:10139000DB435B070BD451B100781061606A401CDD
:1013A0006062608D401E6085208D401E20852A462B
:1013B0004946204601F064FA0028CED1208D00284D
:1013C000C5D154F83D0B016841F400710160202043
:1013D00004F81E09E67766770020C7E7FFE70220DA
:1013E000C4E70000020010000000FFFF2DE9FF4FDE
:1013F00083B09A46DDE9119793460446DDF84080B4
:10140000FFF794FE054694F83D0020287FD119236C
:10141000012240492046009501F05EFA002876D16D
:1014200094F83C00012872D0012084F83C00206828
:101430000168C90703D1016841F00101016020681A
:10144000016821F400610160212084F83D00402002
:1014500084F83E0000262664C4F82480A4F82A906C
:10146000608D20852C48E062CDE9007553465A46D0
:101470002046049901F0B0F970B930E02A463946A7
:10148000204601F0CFFA58B1206C042804D120681E
:10149000016841F400710160012007B0BDE8F08FE0
:1014A000606A216800780861606A401C6062218D72
:1014B000491E89B22185628D521E62852268536958
:1014C000DB435B070BD469B100781061606A401C94
:1014D0006062208D401E2085608D401E6085208DBD
:1014E0000028CBD12A463946204601F0C9F9002808
:1014F000CAD154F83D0B016841F40071016020200D
:1015000004F81E09E67766770020C6E7FFE70220A9
:10151000C3E70000020010000000FFFF10B586B016
:101520000021009101910291039100680F498842C6
:101530001AD10F4CA06940F00800A061A06969466B
:1015400000F008000490C0200090122001900320B9
:1015500003900848FFF7E8FCE06940F40010E06100
:10156000E06900F40010049006B010BD0054004083
:1015700000100240000C01400248816802781144CA
:10158000816070472C000020074810B5016841F0C9
:1015900010010160032000F0A7F80F2000F006F80A
:1015A00000F050F8002010BD0020024030B5054684
:1015B0001F4887B0C16941F00401C161C06906A933
:1015C00000F00400009001A800F0FEF90498B0B10A
:1015D00000F01AFA40001749174AB0FBF1F117481A
:1015E000491E0260416040F2E7320021C0E9032158
:1015F0008160816100F0A6FC040003D015E000F0DA
:1016000003FAE8E70D4800F0DDFC04000DD11E20D0
:1016100000F03CF8102D07D2002229461E2000F0D1
:1016200043F80748056000E0012407B0204630BDBC
:101630000010024040420F00000800403402002029
:10164000300000200F4808B5816941F00101816137
:10165000816901F001010091C16941F08051C161CE
:10166000C069002200F0805000900F21901E00F011
:101670001BF80548416821F0E06141F000714160CC
:1016800008BD00000010024000000140002809DBF6
:1016900000F01F02012191404009800000F1E0208C
:1016A000C0F8001170470000F0B40E4B1B680C46E8
:1016B000C3F30223C3F10705042D00D90425191D26
:1016C000072901D2002300E0DB1E012606FA05F1FE
:1016D000491E214099409E40761E16403143F0BC81
:1016E00002F0B3B80CED00E0064900F0070208680C
:1016F0004FF6FF03184040EA0220034A10430860F7
:10170000704700000CED00E00000FA0510B501463E
:101710000020234C012922D0022939D010291DD1C3
:1017200061682268D20119D51E48C1F38342C903FA
:10173000805C0AD561681B4AC1F34041921E515C2E
:10174000194AB2FBF1F1484301E018494843616886
:10175000490203D440000321B0FBF1F010BD226A1E
:10176000C2F30121012903D1920701D5C80310BD9D
:10177000022905D1626A920702D549F6404010BDA0
:101780000329FCD121688903F9D54FF2244010BD0B
:1017900000F04AF96168C1F38131491C4900DBE777
:1017A000001002404864000800127A0000093D0061
:1017B0002DE9F84305460078354CC00754D0E06960
:1017C0000026C00008D4E06940F08050E061E06984
:1017D000012600F0805000902E480168C90512D4FF
:1017E0000168804641F480710160FFF79FFC074665
:1017F00005E000BFFFF79AFCC01B642823D8D8F887
:101800000000C005F6D5206A10F4407021D0A988E8
:1018100001F4407181421CD0206A1F49012220F44A
:1018200040700A6000220A602062C00711D0FFF7F2
:101830007DFC074641F2883808E000BFFFF776FCE0
:10184000C11B414502D90320BDE8F883206A800707
:10185000F4D5206A696820F44070084320621EB104
:10186000E06920F08050E0612878800705D5606845
:10187000A96820F44040084360602878C00605D578
:101880006068E96820F48000084360600020DBE7BE
:101890000010024000700040400442422DE9F04731
:1018A0000F46050061D0434E306800F00700B84293
:1018B00009D2306820F0070038433060306800F00B
:1018C0000700B84251D128683B4C810712D5400728
:1018D00003D5606840F4E06060602878000703D5B5
:1018E000606840F4605060606068A96820F0F000B3
:1018F000084360602878C00728D06868012810D0A5
:101900002168022810D0890700292EDA616821F0A9
:10191000030101436160FFF709FC804641F2883909
:101920000DE021688903EFE78901EDE7FFF7FEFB92
:10193000A0EB0801494502D90320BDE8F0876068A3
:10194000696800F00C00B0EB810FEFD1306800F057
:101950000700B8420BD9306820F0070038433060E8
:10196000306800F00700B84201D00120E5E7287890
:10197000400705D56068E96820F4E06008436060CE
:101980002878000706D56068296920F4605040EA8D
:10199000C100606000F058F86168084AC1F30311A3
:1019A000515CC8400649086006480068FFF7FEFD24
:1019B0000020C2E7002002400010024058640008E6
:1019C00038000020300000200F2202600C4A5368CB
:1019D00003F003034360536803F0F003836053682C
:1019E00003F4E063C36052684FF4E06303EAD20299
:1019F00002610448006800F00700086070470000BA
:101A0000001002400020024004480549006849686F
:101A1000044AC1F30221515CC840704738000020DD
:101A200000100240686400080448054900684968DD
:101A3000044AC1F3C221515CC840704738000020FD
:101A400000100240686400080E4A51680E4801F018
:101A50000C03042B11D0082B0FD10C48C1F3834386
:101A6000C903C05C0AD55168084AC1F34041921EBF
:101A7000515C054A5043B0FBF1F0704704494843BC
:101A8000704700000010024000127A00366400081F
:101A900000093D002DE9F84F040070D02078C04DBA
:101AA000C00749D06868C0F38100012807D0686882
:101AB000C0F38100022809D16868C00306D52868F0
:101AC000800339D560680028E7D035E06068B0F55C
:101AD000803F0BD010B1B0F5A02F11D0286820F4B2
:101AE00080302860286820F4802002E0286840F4D4
:101AF00080302860606890B1FFF718FB06460AE066
:101B0000286840F480202860F0E700BFFFF70EFB54
:101B1000801B642873D828688003F7D50CE0FFF792
:101B200005FB064605E000BFFFF700FB801B6428AD
:101B3000F0D828688003F7D420789A4E80074FF0B9
:101B400001094FF0000839D5686810F00C0F07D074
:101B50006868C0F38100022809D16868C00306D410
:101B60002868800714D52069012808D110E0206971
:101B7000B0B1C6F80090FFF7D9FA074605E00AE1D0
:101B8000FFF7D4FAC01B0228C4D828688007F7D50D
:101B90002868616920F0F80040EAC10028600DE083
:101BA000C6F80080FFF7C2FA074604E0FFF7BEFA66
:101BB000C01B022823D828688007F7D420780007A4
:101BC0002CD57948A169D9B1C0F80090FFF7AEFAD9
:101BD000074604E0FFF7AAFAC01B02280FD8686A7C
:101BE0008007F7D571484FF4FA510068B0FBF1F067
:101BF000009000BF0098411E0091FAD20EE080E0F4
:101C0000C0F80080FFF792FA074604E0FFF78EFA6B
:101C1000C01B022875D8686A8007F7D4207840076F
:101C200060D5E8690027C00008D4E86940F080501A
:101C3000E861E869012700F0805000905C48016885
:101C4000C90513D40168834641F480710160FFF730
:101C50006DFA824606E000BFFFF768FAA0EB0A00C3
:101C600064284ED8DBF80000C005F5D5E0680128EF
:101C70000AD008B1052813D0286A20F00100286294
:101C8000286A20F0040002E0286A40F0010028627F
:101C9000E06841F2883B98B1FFF748FA82460BE0D2
:101CA000286A40F004002862EEE700BFFFF73EFA22
:101CB000A0EB0A0159455AD8286A8007F6D50CE0EE
:101CC000FFF734FA824605E0FFF730FAA0EB0A018D
:101CD00059454CD8286A8007F6D41FB1E86920F02E
:101CE0008050E861E06988B36968C1F38101022925
:101CF00044D00228C6F8608004D0FFF717FA0446E3
:101D000038E034E0FFF712FA074604E0FFF70EFA76
:101D1000C01B02282BD828688001F7D4206AB0F5B0
:101D2000803F05D16868A16820F4003008436860EE
:101D3000D4E908010843696821F474110843686014
:101D4000C6F86090FFF7F2F9044606E025E000BF10
:101D5000FFF7ECF9001B022809D828688001F7D5A5
:101D60001BE000BFFFF7E2F9001B022802D90320A5
:101D7000BDE8F88F28688001F4D40EE00128F7D080
:101D80006868226A00F48031914204D1616A00F4EB
:101D90007010884201D00120EAE70020E8E7000047
:101DA00000100240000042428004424238000020FD
:101DB0000070004070B5040009D0606A002540B191
:101DC00025616561A56294F8510040B10CE00120E5
:101DD00070BD6068B0F5827FF4D0E561F2E784F809
:101DE0005050204600F040F8022084F8510020684E
:101DF000016821F040010160A088218900F482700F
:101E000001F404410843A18901F400610843217CE5
:101E100001F002010843217D01F001010843218BFB
:101E200001F400710843217F01F03801084394F860
:101E3000201001F080010843218D01F40051084376
:101E400021680860A069042101EA10402168486007
:101E50002068C16921F40061C1616565012084F8D1
:101E60005100002070BD000030B585B00024009402
:101E700001940294039400681449884223D11448C1
:101E8000816941F480518161816901F4805104913B
:101E9000816941F00401816180690E4D00F0040008
:101EA0000490B02000900220019003200390694626
:101EB0002846FFF739F84020CDE900046946284656
:101EC0000294FFF731F805B030BD0000003001404A
:101ED00000100240000801407047704770B590F84C
:101EE0003C20012A26D0012480F83C40022280F8C0
:101EF0003D2003685A689D6822F070060A683243E4
:101F00005A600D4B02689A4208D0B2F1804F05D05A
:101F10000A4B9A4202D00A4B9A4204D1496825F0F2
:101F200080031943916080F83D40002180F83C1007
:101F3000084670BD022070BD002C01400004004026
:101F40000008004010B5040003D094F83D0010B123
:101F500007E0012010BD002084F83C00204600F07E
:101F60001FF8022084F83D00211D206801F066FA68
:101F7000012084F8460084F83E0084F83F0084F88D
:101F8000400084F8410084F8420084F8430084F85B
:101F9000440084F8450084F83D00002010BD000096
:101FA00008B50068B0F1804F08D10548C16941F01B
:101FB0000101C161C06900F00100009008BD00008E
:101FC0000010024090F83D10012901D00120704717
:101FD000022180F83D100168CA6842F00102CA601F
:101FE00000680B49884208D0B0F1804F05D00949FC
:101FF000884202D00849884204D1816801F0070173
:10200000062903D0016841F00101016000207047FA
:10201000002C0140000400400008004070B5044658
:1020200090F83C000025012817D0012684F83C6078
:10203000022084F83D002068826822F0770222F4B2
:102040007F4282600868502838D00DDC20284FD0AD
:1020500005DC90B3102811D14AE0022070BD302871
:1020600046D040280AD13BE060282FD070280DD000
:10207000B0F5805F03D0B0F5005F12D0012584F881
:102080003D60002084F83C00284670BDCB68D1E953
:102090000121206801F00EFA2068816841F0770183
:1020A00009E0CB68D1E90121206801F003FA20683A
:1020B000816841F480418160E1E719E0CA684968BC
:1020C000206801F0ABFA5021206806E0CA68496830
:1020D000206801F0B4FA6021206801F0F5F9CEE73C
:1020E000CA684968206801F099FA40212068F4E73D
:1020F000226801461046F0E770472DE9F04104469A
:102100000068C66805694FF00007A90713D5B10735
:1021100011D5F91E016101202077206880698007B0
:10212000204602D0FFF7E8FF04E000F0A1F82046C7
:1021300000F033F92777680716D5700714D52168A2
:102140006FF004000861022020772068806910F495
:10215000407F204602D0FFF7CFFF04E000F088F870
:10216000204600F01AF92777280715D5300713D530
:1021700021686FF008000861042020772068C0699A
:102180008007204602D0FFF7B7FF04E000F070F8A8
:10219000204600F002F92777E80616D5F00614D598
:1021A00021686FF010000861082020772068C0695E
:1021B00010F4407F204602D0FFF79EFF04E000F0BD
:1021C00057F8204600F0E9F82777E80708D0F0072D
:1021D00006D021686FF001000861204600F0DEF8AB
:1021E000280608D5300606D521686FF08000086102
:1021F0002046FFF771FE680608D5700606D52168EF
:102200006FF040000861204600F0D2F8A8060AD519
:10221000B00608D521686FF0200008612046BDE8AF
:10222000F041FFF75ABEBDE8F081000000B585B06F
:10223000002100910191029103910068B0F1804F5B
:1022400010D10948816941F00401816180696946C2
:1022500000F00400049002200090019003900348D5
:10226000FEF762FE05B000BD00100240000801400C
:10227000704770B5044690F83C0000260D460128D2
:102280000FD0012084F83C006AB1042A1DD0082A2E
:102290002FD00C2A3FD00126002084F83C00304685
:1022A00070BD022070BD206801F016F920688169B8
:1022B00041F0080181612068816921F00401816198
:1022C000206881692A69114311E0206801F02CF926
:1022D0002068816941F4006181612068816921F48D
:1022E00080618161206881692A6941EA02218161F6
:1022F000D2E7206801F044F92068C16941F0080183
:10230000C1612068C16921F00401C1612068C1690F
:102310002A69114311E0206801F05EF92068C16963
:1023200041F40061C1612068C16921F48061C1612B
:102330002068C1692A6941EA0221C161ACE710B590
:10234000040003D094F83D0010B107E0012010BD57
:10235000002084F83C00204600F01EF8022084F89B
:102360003D00211D206801F069F8012084F8460035
:1023700084F83E0084F83F0084F8400084F841006F
:1023800084F8420084F8430084F8440084F845004F
:1023900084F83D00002010BD704770470068034975
:1023A000884201D1FFF7E8B87047000000080040FC
:1023B0007047704770470000F8B501680446086828
:1023C000CA684B6910F00F0F4FF0000559D003F0A9
:1023D000010602F49077374365D0C10705D0D105D7
:1023E00003D5616C41F001016164410705D5D9074E
:1023F00003D0616C41F002016164810705D5D90702
:1024000003D0616C41F004016164010707D502F05B
:102410002001314303D0616C41F008016164616CBB
:1024200000293AD0800604D5900602D5204601F056
:1024300047F920684069616CC0F38010090700D437
:1024400060B3204601F015F920684069400621D5A7
:102450002068143050E8001F21F0400140E80012CD
:10246000002AF5D1E06BA8B16D494163E06BFEF73E
:10247000DDFC002811D0E06B416B01B0BDE8F040FD
:10248000084783060FD593060DD52046BDE8F840D2
:1024900001F016B92046FFF78DFFF8BD2046FFF783
:1024A00089FF6564F8BD266B2023012E7CD1C6060A
:1024B0007AD5D60678D508684868009048694FF004
:1024C0000206400640D5E16B086840680004000C35
:1024D000E8D0A28D8242E5D9E085886920282DD0F8
:1024E00020680C3050E8001F21F4807140E8001291
:1024F000002AF5D12068143050E8001F21F00101B6
:1025000040E80012002AF5D12068143050E8001F7E
:1025100021F0400140E80012002AF5D184F8423051
:10252000256320680C3050E8001F21F0100140E8BE
:102530000012002AF5D1E06BFEF754FC6663A08D13
:10254000E18D401A81B22AE0A08DE18D401A81B25E
:10255000E08D0028A6D00029A4D022680C3252E8D1
:10256000000F20F4907042E80007002FF5D120689A
:10257000143050E8002F22F0010240E80027002F1D
:10258000F5D184F84230256320680C3050E8002FE4
:1025900022F0100240E80023002BF5D166632046AC
:1025A000FFF707FFF8BDFFE705062BD5150629D570
:1025B00094F841002128F5D1A068B0F5805F01D1E1
:1025C0002069B0B1206A411C21622168007848600E
:1025D000E08C401E0004000CE084E3D12068C16858
:1025E00021F08001C1602068C16841F04001C160F4
:1025F000D8E7206A0088C0F308004860206A801C81
:102600002062E5E74006CDD55006CBD5CA68204606
:1026100022F04002CA6084F8413000F076F8C1E749
:102620006336000870B5040004D094F8410000251A
:1026300010B106E0012070BD84F84050204600F043
:1026400023F8242084F841002068C16821F4005157
:10265000C160204601F096F82068016921F490419C
:1026600001612068416921F02A0141612068C16847
:1026700041F40051C1606564202084F8410084F871
:1026800042006563002070BD30B585B00024009421
:102690000194029403940068184988422CD1184888
:1026A000816941F480418161816901F48041049133
:1026B000816941F0040181618069124D00F00400DC
:1026C00004904FF4007000900220019003200390CA
:1026D00069462846FEF728FC2815CDE9000469461E
:1026E00028460294FEF720FC002205212520FEF753
:1026F000DBFF2520FEF7CAFF05B030BD00380140E2
:10270000001002400008014070477047FEE7016872
:102710004A69D24352050FD46FF480624A610021A6
:1027200040F8301F202242738173026942F0040294
:10273000026101730120704700207047F8B504461C
:10274000C06A1E460D461746082807D0012805D046
:1027500010F5803F02D0206B122804D12068016858
:1027600041F480710160134600224FF001112046B0
:10277000009600F0B1F840B120680068C00502D5AD
:102780004FF4007020640320F8BD2069B0F5804F3D
:102790000ED00620216800EAD51040F0F000086154
:1027A00033463A460B49204600F0DEF878B902E09D
:1027B00005F0FE0000E0E8B22168086105493346F3
:1027C0003A46891F204600F0CFF80028DCD00120CF
:1027D000F8BD0000080001002DE9F8430446006838
:1027E0000D46DDE9089701689846164641F4807168
:1027F00001604B4600224FF001112046009700F087
:102800006BF848B120680068C00502D54FF400702D
:1028100020640320BDE8F883216805F0FE0008610C
:102820003B464A461549204600F09EF888B9206884
:102830004169806900903A464946204600F0F2F826
:1028400048B1206C042804D12068016841F400716B
:1028500001600120DEE7F5B2B8F1010F09D021686F
:10286000300A08613A464946204600F0DBF8002865
:10287000E7D1206805610020CCE7000002000100DC
:1028800070B516460D4604461EE02046FFF73FFF92
:1028900008B1012070BD681C16D0FEF747FC801BF4
:1028A000A84200D885B920684069C04340070BD5CD
:1028B000002044F8300F20216173A073216941F09A
:1028C000200121612073E4E720684069C04340078C
:1028D000DBD4002070BD00002DE9F0479846174674
:1028E0000D460446C1F30746DDF820902AE000BFFC
:1028F000B8F1FF3F26D0FEF719FCA0EB09014145D6
:1029000002D8B8F1000F1DD12068012E16D08069C1
:1029100025EA00000004000C12D00020B84211D1BA
:10292000002044F8300F20216173A073216941F029
:102930002001216120730120BDE8F0874069E7E7AD
:102940000120EBE72068012E0AD0806925EA00000B
:102950000004000C06D00020B842C9D00020EBE7EC
:102960004069F3E70120F7E72DE9F047984616465E
:102970000D4604464FF000094FF0200AC1F3074707
:1029800023E020684069C043400515D420680168F1
:1029900041F40071016021686FF480604861C4F8FF
:1029A000309084F83DA084F83E90216C41F0040101
:1029B000216484F83C9021E0701C06D0FEF7B6FB41
:1029C000A0EB0800B04203D816B1012F1FD021E0C0
:1029D0002068012F15D0806925EA00000004000C52
:1029E00018D000BF44F8309F84F80DA084F80E90F2
:1029F000216941F02001216184F80C900120BDE89B
:102A0000F087406925EA00000004000CEAD1206844
:102A1000406901E02068806925EA00000004000C9C
:102A2000AFD1ECE770B516460D4604461EE02046D1
:102A3000FFF76DFE08B1012070BD681C16D0FEF7CF
:102A400075FB801BA84200D885B920684069C04347
:102A500000060BD5002044F8300F20216173A073CD
:102A6000216941F0200121612073E4E72068406979
:102A7000C0430006DBD4002070BD000000B585B067
:102A80004FF4404000900E48019001200290022037
:102A9000039069460B48FEF747FA0B48816941F0FD
:102AA000010181618069002200F00100049005218C
:102AB0002820FEF7F9FD2820FEF7E8FD05B000BD4F
:102AC000000031100010014000100240FFF7D6FF57
:102AD0000126184CDFF86090B71E4FF400484FF401
:102AE000804A3946A06902F02DFBE169884212D183
:102AF000142001F047FD41464846FEF705FB05005E
:102B000005D1012E03D10121606A01F01FFF2E467D
:102B10000021E0690BE0216A8842E2D1142001F033
:102B200031FD51464846FEF7EFFA0021206A02F0D7
:102B300013FBD6E7000000200010014008B500F0AC
:102B40001BF80C4E4FF0FF350095002301220721A2
:102B5000706A01F041FF0446C00701D000F040F860
:102B6000A00701D500F034F86007EDD500F028F893
:102B7000EAE700000000002030B50F4885B0816909
:102B800041F01001816180694FF4005400F01000A1
:102B90000490002002900120CDE900400220074D62
:102BA000039069462846FEF7BFF9002221462846D1
:102BB000FEF7B7FA05B030BD00100240001001402A
:102BC00000224FF400510148FEF7ABBA001001405B
:102BD000012251030148FEF7A4BA00000010014091
:102BE0004FF400510148FEF794BA00000010014074
:102BF00001480068FDF750BEBC00002070B50A4CCB
:102C000005462068FEF78EF84FF4FA712068FDF74C
:102C1000EBFF10B14FF0FF3070BD2068FDF726FFCD
:102C20002860002070BD0000BC0000203EB50024DC
:102C300011480094019402940E4984600160047369
:102C40000475012505614FF460214460C161FDF701
:102C500011FF08B1FDF71DFE05200094CDE90150DC
:102C600069460548FDF784FE002801D0FDF711FEF6
:102C70003EBD000000240140C800002010B5032222
:102C80000021012001F0ABFF114C03220021E06183
:102C9000012001F0A4FF206200220C21052001F098
:102CA0009EFF6061022001F096FF0146A061E0698D
:102CB00001F080FFA169206A01F07CFF054A002134
:102CC000054800F03BFEA06201F032FE606210BDDC
:102CD0000000002010640008AD3200082DE9F04724
:102CE00086B00024354800940194029403948169CD
:102CF00041F010018161816901F010010491816945
:102D000041F020018161816901F020010491816914
:102D100041F004018161816901F00401049181693C
:102D200041F0080181618069DFF8948000F00800BB
:102D30004FF400550490002229464046FEF7F1F971
:102D4000DFF8809000220C214846FEF7EAF9DFF810
:102D500078A0AF00002239465046FEF7E2F9012282
:102D600011024846FEF7DDF900950226012503967B
:102D7000CDE9015469464046FEF7D6F84FF440408D
:102D800000901248CDE9010569464046FEF7CCF8AF
:102D90004FF48670CDE90005CDE902466946484604
:102DA000FEF7C2F800970396CDE9015469465046F4
:102DB000FEF7BAF806B0BDE8F08700000010024048
:102DC0000010014000080140000C014000003110DB
:102DD0000D4810B50B4901600C49416000214FF4CA
:102DE00080428160C0E9031241618161C161016279
:102DF000FEF7A2F9002803D0BDE81040FDF749BD59
:102E000010BD000000540040F8000020A086010022
:102E1000104810B50E4901604FF4827141600021E5
:102E20008160C1604FF480220161C0E9051218225F
:102E3000C0E90721416281620A21C162FEF7BAFF3F
:102E4000002803D0BDE81040FDF723BD10BD0000F1
:102E5000003001404C01002010B58EB000240794D2
:102E6000089409940A940B941C2168460C94FDF76D
:102E700044FA1D484FF0804101604721C0E9011428
:102E80006321C0E903148461FFF75CF808B1FDF722
:102E900000FD4FF48050079007A91348FFF7BEF8D4
:102EA00008B1FDF7F6FC1048FFF749FA08B1FDF745
:102EB000F0FC0B940BA90C480C94FFF70FF808B129
:102EC000FDF7E7FC6020CDE9000402940422694686
:102ED00005480494FFF7CDF908B1FDF7DAFC024884
:102EE000FFF7A4F90EB010BDA40100200C4810B5E6
:102EF0000A4901604FF4E1314160002181600C22F8
:102F0000C160C0E904128161C161FFF78BFB002839
:102F100003D0BDE81040FDF7BCBC10BD0038014037
:102F2000EC010020FEE7FEE710B5A0B000248021F0
:102F30006846FDF7E2F90021204600F03DF98021C6
:102F4000684600F06DF9641CE4B2082CF3D320B09D
:102F500010BD000010B50224202000F04DF92046DD
:102F600000F04AF91F4804703F24A82000F044F9FB
:102F7000204600F041F90024D32000F03DF920461E
:102F800000F03AF9402000F037F9A12000F034F9C0
:102F9000C82000F031F90021084600F0F7F87F243E
:102FA000812000F029F9204600F026F9A42000F045
:102FB00023F9A62000F020F9D52000F01DF980208B
:102FC00000F01AF98D2000F017F9142000F014F920
:102FD0000021012000F0DAF8BDE81040AF2000F039
:102FE0000BB90000C00000202DE9F0471F46154630
:102FF0008A46064612F1FF4F06D323A200F089F855
:10300000761C85F00045F6B2284603F081F80446A8
:1030100002465146304600F03DF8012120460A2282
:1030200003E000BF90FBF2F0491C0A28FADA70189E
:10303000C6B216A25146304600F06BF8761CF6B2C6
:10304000204603F081F8294603F062F90024DFF8F6
:10305000409014E0494603F08FF8804603F058F89A
:10306000054602465146304600F014F8761CF6B28A
:10307000284603F069F8414603F04AF9641CBC4253
:10308000E8DBBDE8F08700002D0000002E00000006
:1030900000002041F0B589B00024074620466D4667
:1030A00004AE002A08DA4FF02D038DF800304FF0FF
:1030B0000104C2F1000214E006D14FF030008DF897
:1030C00000004FF001041AE04FF00A0C92FBFCF3F1
:1030D0000CFB132392FBFCF203F13003335400F199
:1030E0000100002AF0D108E006EB0002A0F1010087
:1030F00012F8012C2A5504F101040028F4D14FF0F4
:10310000000028552A46384600F003F809B020464A
:10311000F0BD2DE9F04117460E46044600250BE0B0
:103120003146204600F00EF8641CE4B20F2C02D9A0
:103130000024B61CF6B26D1C7A5D002AF0D1284638
:10314000BDE8F08170B51646C206150E0C4607297B
:1031500018D80F2816D82946204600F02DF80A481E
:10316000082100EB0610064600F05AF8641CE0B295
:10317000294600F021F806F10800BDE8704008215A
:1031800000F04EB870BD00007064000870B50C46C9
:10319000050001D0012D0ED10CB1012C0BD1DA208C
:1031A00000F02AF8280100EB4410BDE87040801CB4
:1031B000C0B200F021B870BD70B50E4D0C46297834
:1031C000022905D1072803D8B030C0B200F014F8A6
:1031D000287802280CD17F2C0AD804F00F0000F0C8
:1031E0000BF8102000EB1410BDE8704000F004B89C
:1031F00070BD0000C00000201CB500218DF8041037
:103200008DF805004FF4FA7000900448022301AADB
:1032100078214068FEF754F81CBD0000C000002073
:103220000EB54FF4FA728DE80700044801234022DE
:1032300078214068FEF7DAF80EBD0000C0000020DB
:1032400086B0FDF7D3F9FFF7D3FC0025164C012615
:103250004FF47A7701A8FDF73DFA58B98DF80C5074
:10326000DDE90101CDE904010023642203A96069BD
:1032700001F04EFD6846FFF7C1FC80B900988DF85B
:103280000C6004900023642203A9606901F040FDF2
:10329000206820B100230322009902F0ABF83846E1
:1032A00001F070F9D6E70000000000201CB51F49AE
:1032B0000120CDE90001002380221DA11F4802F05A
:1032C00041F81A490420091DCDE90001002380229C
:1032D0001BA11E4802F036F8144805240830CDE939
:1032E0000040002380221AA11D4802F02BF80F484D
:1032F00000230C30CDE9004080221AA11C4802F0C6
:1033000021F80A480023001FCDE90040802219A1BE
:103310001C4802F017F820B91BA207210020FFF774
:10332000F8FE002001F054F9FEE700000400002040
:103330004C45445F5461736B000000003D2B000856
:1033400053656E736F725F5461736B004132000896
:10335000446973706C61795F5461736B00000000A5
:10336000F50700084B65795F5461736B000000003E
:10337000CD2A0008436F6E74726F6C5F5461736B7B
:1033800000000000450500086572726F72000000C1
:1033900010B54FF0E020006902F09CF8012803D03E
:1033A000BDE8104001F0F0BB10BD30B593B028214E
:1033B0006846FCF7A2FF14210AA8FCF79EFF00252F
:1033C00001200F9510951195010412958DE82300A9
:1033D00004904FF4E010CDE90810022407946846E9
:1033E000FEF758FB08B172B6FEE70AA90F2081E884
:1033F00031004FF48060CDE90D0502210AA8FEF7E7
:103400004DFA08B172B6FEE74FF4004011900F94E8
:103410000FA8FEF7CDF9002801D072B6FEE713B071
:1034200030BD70470148FEF768BE0000A4010020CF
:103430000148FEF762BE000034020020F0B50268C9
:10344000194B1A4C1A4D4FF08047984205D0B8429C
:1034500003D0A04201D0A84203D122F070064A68EE
:103460003243984205D0B84203D0A04201D0A842CE
:1034700003D122F44074CA6822434C6922F08002CE
:10348000224302608A68C2620A688262984201D15D
:1034900009690163012141610169C90703D001691B
:1034A00021F001010161F0BD002C01400004004049
:1034B0000008004010B5846842EA032224F47F44E7
:1034C0000A432243826010BD826822F070020A43E0
:1034D00042F007018160704730B5036A026A22F04A
:1034E000010202624268846924F073050C682C436F
:1034F00023F002058B682B430A4DA8420BD123F021
:103500000805CB6822F440722B434D6923F0040375
:1035100015438A692A4342608461496841630362B2
:1035200030BD0000002C014030B5026A036A23F070
:1035300010030362436884690D6824F4E64444EA96
:1035400005248D6822F0200242EA05120B4DA842A4
:103550000ED1CD6822F0800242EA05124D6923F4B3
:10356000406343EA85038D6922F0400243EA850304
:103570004360846149688163026230BD002C014070
:1035800030B5036A026A22F4807202624268C4693A
:1035900023F4007324F073050C682C438D6843EA10
:1035A00005230C4DA8420ED1CD6823F4006343EAF5
:1035B00005234D6922F4405242EA05128D6923F435
:1035C000806342EA05124260C4614968C1630362D4
:1035D00030BD0000002C014030B5046A026A22F4BC
:1035E000805202624268C3690D6823F4E64343EAED
:1035F00005238D6824F4005444EA0534064DA8429E
:1036000004D14D6922F4804242EA85124260C361CE
:1036100049680164046230BD002C014010B5036AA2
:10362000046A24F001040462846924F0F00444EA8A
:10363000021423F00A020A438461026210BD10B52D
:10364000036A046A24F010040462846923F0A0036E
:1036500024F4704444EA023243EA011182610162B7
:1036600010BD10B5406A0021C185C184FEF7A2FEDD
:1036700010BD01680C3151E8002F22F4907241E82E
:103680000023002BF5D10168143151E8002F22F0FE
:10369000010241E80023002BF5D1016B012909D17A
:1036A00001680C3151E8002F22F0100241E800239C
:1036B000002BF5D1202180F84210002101637047D2
:1036C00008B590F84210222901D0022008BD826876
:1036D0004FF480539A4201D1016921B1816A9A4223
:1036E0001BD04AB10AE00268816A5268C2F308023C
:1036F0000A80816A891C08E0026972B10268526816
:1037000002F07F020A70816A491C8162C18D491EE4
:103710000904090CC18503D01BE002685268F1E777
:103720000168CA6822F02002CA600168CA6822F4EF
:103730008072CA6001684A6922F001024A61202150
:1037400080F8421000214163026B012A03D0FEF78A
:10375000DBFF002008BD016301680C3151E8002F38
:1037600022F0100241E80023002BF5D101680A681D
:10377000D20602D50A6849680091818DFEF719FECC
:10378000E7E7000070B5044600680169E26821F4CB
:103790004051114301612169A068084361690843F0
:1037A0002168CA6841F20C639A430243CA602068E8
:1037B0004169A26921F44071114341611E492068A9
:1037C000884202D1FEF730F901E0FEF71DF900EB67
:1037D000C00101EB0012606864218000B2FBF0F3CD
:1037E000B3FBF1F36FF018067343B2FBF0F5B2FBD5
:1037F000F0F605EB8305322303EB0515B5FBF1F578
:10380000B6FBF1F605F0F00505EB0615B2FBF0F698
:10381000B2FBF0F0B0FBF1F06FF01802504306EB92
:10382000800003EB0010B0FBF1F0216800F00F0006
:103830002844886070BD0000003801400148FEF750
:10384000BBBD0000EC010020FEE70907090E0028BF
:1038500004DB00F1E02080F80014704700F00F0056
:1038600000F1E02080F8141D70470000FDF78CFE89
:10387000FFF79BFDFFF732FAFFF7AAFAFFF7ECFA22
:10388000FFF7D4F9FFF7C4FAFFF730FB0022052158
:103890001C20FDF709FF1C20FDF7F8FE0022052182
:1038A0002820FDF701FF2820FDF7F0FEFFF752FB6F
:1038B000FFF73AFB002105A20846FFF72AFC00F0BB
:1038C0000FF8FFF7DBF900F01DF8FEE7537973748A
:1038D000656D20426F6F74696E672E2E2E0000009A
:1038E000EFF3058010B16FF00500704704480168E0
:1038F00011B14FF0FF307047012101600020704787
:103900008C00002010B5EFF3058010B16FF00500BA
:1039100010BD08480168012902D04FF0FF3010BDEA
:10392000054A002182F8141D0221016000F082FF87
:10393000002010BD8C0000200BE000E02DE9FF41CD
:103940004FEA01034FF00005EFF30581039549BBF2
:1039500040B38027182100244AB3166806B13446C4
:1039600096691EB13146761E382E02D21679F607B8
:1039700003D0002004B0BDE8F081566906B1B70855
:10398000D2F808C0BCF1000F0DD0D5685C2D18D35B
:1039900012693AB136B18DE806103A46214601F077
:1039A000FEFC03900DE0D6685EB912694AB903AA1D
:1039B000CDE90012BAB2214601F0C4FC012800D0C2
:1039C00003950398D6E700002DE9F041134C0F460C
:1039D0000546E6682068001D00F094FC681C07D1CD
:1039E00037B12168BDE8F0410D48091D00F0E6BC83
:1039F00020683544B5424560216805D2A06BBDE81A
:103A0000F041091D00F0C2BC606B091D00F0BEFC56
:103A1000A06A854200D2A562BDE8F0813C0000208A
:103A20006C0700202DE9F041054600F0D3FC2D4C39
:103A3000A068401CA06020682B4F10B1606930B3B3
:103A40002BE02560A068012827D1002606EB860020
:103A500007EB800000F08CFC761C382EF6D3234850
:103A600000F086FC2148143000F082FC1F4828300A
:103A700000F07EFC1D483C3000F07AFC1B485030C2
:103A800000F076FC194860631430A06305E02068FC
:103A9000E96AC06A884200D82560606A401C60629A
:103AA0006864E86A2169884200D9206100EB8000DF
:103AB00007EB8000291D00F081FC00F0ABFC606981
:103AC00000280CD02068E96AC06A884207D20849F9
:103AD0004FF080500860BFF34F8FBFF36F8FBDE88A
:103AE000F08100003C000020BC0200201C070020E8
:103AF00004ED00E038B500F06DFC104C2068C8B94A
:103B00000F4800F035FC0E48143000F031FC0C4832
:103B1000E060143020610A4B0020F43B009003F178
:103B2000540210210A2001F07BF8206010B105A199
:103B300000F0F2FCBDE8384000F06CBC78000020DA
:103B400074080020546D72510000000030B4026C03
:103B50000B46002A0BD0C1681144C1608468A142A1
:103B600001D30168C16030BC1846FCF779BB30BC9A
:103B700070472DE9F041856B174604460026026C1C
:103B800082B1C7B1E068FCF76BFBE168206C091AF1
:103B9000E1602268914202D2A168081AE060022F17
:103BA00016D017E02068A8B9A06801F051FD0646BC
:103BB0000020A0600EE06068FCF752FB216C60689A
:103BC00008446060A168884204D32068606001E016
:103BD00005B16D1E6D1CA5633046BDE8F08110B5C2
:103BE000044690F8590058B101280CD002280FD093
:103BF000502080F31188BFF34F8FBFF36F8FFEE724
:103C0000206B00F01BFC2046BDE8104000F016BC05
:103C100010BD000010484FF44061420706D0C01D9F
:103C20000D4920F00700411AC1F540610B4A0023FD
:103C30000144C2E900030839183A21F00701116074
:103C40004B600B600B1AC0E9001393604FF000400B
:103C50005360506170470000540F0020A8000020FE
:103C6000144E154CA6F29C474FF08058DFF84C904C
:103C700012E000BF00F0AEFBF068C568281D00F040
:103C800041FBA068401EA0606068401E606000F0BC
:103C9000C1FB2846FFF7A3FF60680028EAD1386817
:103CA0000128F9D9C9F80080BFF34F8FBFF36F8F98
:103CB000F2E70000580700203C00002004ED00E07F
:103CC00070B51D46049C61B1C4F80020C4E90F0121
:103CD0000121204600F0D8FF84F850500020A06455
:103CE00070BD2460F2E700002DE9F05F8846DDE951
:103CF0000B941546834691009A460A9EA522206B96
:103D0000FCF7F3FA6FF00301206B01EB8501084427
:103D100020F00707780707D0502080F31188BFF301
:103D20004F8FBFF36F8FFEE70025B8F1000F0FD064
:103D30005FF00000221818F8001082F8341018F80C
:103D4000001011B1401C1028F4D384F8435001E056
:103D500084F83450382E00D33726E662C4E9136560
:103D6000201D00F010FB04F1180000F00CFB246192
:103D7000C6F138006462A061656584F85850524607
:103D80005946384600F0ACFA2060B9F1000F01D076
:103D9000C9F80040BDE8F09F30B5114900E0114678
:103DA0000A688242FBD34B685C18844203D14068A6
:103DB00018444860084643681C18944209D1084CCE
:103DC000183C2468A24209D052681A4442600A682A
:103DD00012680260814200D0086030BD0460F9E7DB
:103DE000A800002070B5002441600B4D0061914295
:103DF00006D8D11A8269914206D2011D286907E0CE
:103E00009A4203D2994201D3012403E0011DE868DC
:103E100000F0BCFA204670BD7800002010B50446C2
:103E200000F0D8FAA06B28B15FF0000400F0F2FABD
:103E3000204610BD0124F9E7F1B500260098846CF6
:103E40005CB1A16BE06B81420FD3502080F31188ED
:103E5000BFF34F8FBFF36F8FFEE7502080F31188C1
:103E6000BFF34F8FBFF36F8FFEE7A16B81420CD280
:103E700094F94550002269462046FFF77AFE06462F
:103E8000681C04D06D1C84F845503046F8BD606A4B
:103E90000028FAD004F1240001F056FC0028F4D0E8
:103EA0000126F2E730B589B03C4D6EE00498002859
:103EB00006DADDE90601059A90470498002864DBDC
:103EC000069C606910B1201D00F01CFA03A800F0E8
:103ED000D7F8024604980A2857D2DFE800F0050513
:103EE000052D334A05052D3394F8280040F00100D4
:103EF00084F828000599A069059B01442046FFF736
:103F000071FF68B3216A2046884794F8280040076B
:103F10003BD5002000900598A1690023421819465E
:103F2000204601F0DBFCD8B9502080F31188BFF3A4
:103F30004F8FBFF36F8FFEE714F8280F20F00100BA
:103F4000207022E094F8280040F0010084F8280056
:103F50000598A06128B1811813462046FFF742FF5B
:103F600013E0502080F31188BFF34F8FBFF36F8FA2
:103F7000FEE794F82800810703D4204600F05EFA9B
:103F800003E020F0010084F82800002204A928683A
:103F900001F03CF8002889D109B030BD780000203C
:103FA0002DE9FC410F46054600F088FC01A800F011
:103FB00067F80446019818B101F0FEFBBDE8FC81EA
:103FC000254EAFB130690068D0B30027291B3A46AF
:103FD000306800F0B5FA01F0EFFB0028EED11F4980
:103FE0004FF080500860BFF34F8FBFF36F8FE5E74E
:103FF000A542EBD801F0E0FBF0682746C068C46832
:10400000201D00F07FF994F82800410719D5A06918
:104010002B4641193A462046FFF7E4FEA8B100209E
:104020000346014600902A46204601F057FC60B93D
:10403000502080F31188BFF34F8FBFF36F8FFEE7DF
:1040400007E020F0010084F82800216A2046884714
:10405000B4E70127BAE700007800002004ED00E093
:104060000648416B096829B1416BC968C96849684C
:10407000816270474FF0FF31FAE700003C000020FA
:1040800070B5054601F034FA064E0446B068844225
:1040900003D200F009F8012000E00020286020464B
:1040A000B46070BD78000020F8B5194D20E0C068FC
:1040B000C4680668201D00F025F9216A204688475B
:1040C00094F82800400713D5A0693044B04206D9BF
:1040D00024616060211DE86800F058F908E00020C4
:1040E0000346014600903246204601F0F7FB38B106
:1040F000E86801680029DAD12969C5E90310F8BD2B
:10410000502080F31188BFF34F8FBFF36F8FFEE70E
:104110007800002008484068401C4FF0500080F3B1
:10412000118804D0BFF34F8FBFF36F8FFEE7BFF34B
:104130004F8FBFF36F8FFEE7B000002003460020D3
:1041400012B1994302D070470B42FCD00120704756
:10415000074CE068016841B1C0680021D0F8000058
:10416000FFF71EFFFFF79EFEF3E701210020F7E7B0
:10417000780000202DE9F041044600F02BF994F975
:10418000455004F124060FE0A06C18B12046FFF75B
:1041900053FE04E0606A48B1304601F0D5FA08B138
:1041A00000F066FA6D1E6DB2002DEDDC4FF0FF36AB
:1041B00084F8456000F02EF900F00CF994F94450B1
:1041C00004F1100709E0206948B1384601F0BCFA53
:1041D00008B100F04DFA6D1E6DB2002DF3DC84F8CD
:1041E0004460BDE8F04100F015B900002DE9F04150
:1041F0000546002700F062FB324E306808B9FFF731
:1042000009FD706905424ED1C5B3083568070ED067
:1042100005F00700C0F108000544680707D05020EA
:1042200080F31188BFF34F8FBFF36F8FFEE72DB37D
:104230007068854237D82348183001460C6801E081
:1042400020460C466168A94202D221680029F7D1B4
:1042500031688C4227D007682168016060680837A0
:10426000411B10290FD96019420708D0502080F354
:104270001188BFF34F8FBFF36F8FFEE713E04160EC
:104280006560FFF789FD61687068401A7060B26808
:10429000904200D2B060706901430020C4E900017F
:1042A000F068401CF06001F087FA780707D05020D2
:1042B00080F31188BFF34F8FBFF36F8FFEE738464F
:1042C000BDE8F081900000200449086818B1086832
:1042D000026D521C02650868704700003C00002017
:1042E00010B5031F4FF080741C601B1F21F00101EB
:1042F0001960191F024B0B60143940380A6010BD59
:1043000015410008D0E9013201699A60D0E9012322
:104310005A604A68824201D182684A600022026182
:104320000868401E08600868704700000449086873
:104330000A688069D26A0968C2F138028A617047E6
:104340003C000020034B036003F15C000860802008
:10435000106070479C080020044B036003F15C0070
:1043600008604FF48070106070470000F80A002069
:1043700000F108014FF0FF32C0E90112C160016194
:1043800000210160704700210161704730B50B6862
:104390005A1C02D000F1080202E0026904E0224641
:1043A000546825689D42FAD953684B6099608A60C9
:1043B000516008610168491C016030BD42684A6073
:1043C00093688B6093685960916008610168491C2B
:1043D00001607047502080F31188BFF34F8FBFF307
:1043E0006F8F0A494868401C486001280CD1084872
:1043F000006810F0FF0F07D0502080F31188BFF342
:104400004F8FBFF36F8FFEE770470000B0000020B2
:1044100004ED00E00849486828B1401E486001D119
:1044200080F311887047502080F31188BFF34F8FBD
:10443000BFF36F8FFEE70000B000002070B50028CA
:104440002AD0164DA0F1080460686969084207D1B6
:10445000502080F31188BFF34F8FBFF36F8FFEE7BB
:1044600022683AB1502080F31188BFF34F8FBFF319
:104470006F8FFEE78843606000F020FA606869682B
:10448000084468602046FFF787FC2869401C2861C3
:10449000BDE8704001F090B970BD000090000020B0
:1044A0004FF0E02000210161816105494FF47A72EB
:1044B0000968B1FBF2F1491E4161072101617047B2
:1044C0003800002010B5FBF7A7FE114910280ED3C5
:1044D00000F1E02090F8F0030A78904207D25020D3
:1044E00080F31188BFF34F8FBFF36F8FFEE709484A
:1044F0000068896800F4E060884207D9502080F3A2
:104500001188BFF34F8FBFF36F8FFEE710BD000020
:10451000B00000200CED00E010B5084B002200BFF9
:1045200053F832401CB1521C082AF9D310BD43F88D
:10453000321003EBC201486010BD00007C02002075
:1045400070B515460E460446FFF744FF94F9441033
:104550000020491C01D184F8440094F94510491CFD
:1045600001D184F84500FFF755FFA06B28B92A4612
:10457000314604F1240000F099F82046BDE870406F
:10458000FFF7F8BD10B5020014D00F48006B38B12A
:10459000502080F31188BFF34F8FBFF36F8FFEE77A
:1045A00000F08CF900211046FFF70EFA01F004F933
:1045B000002807D105494FF080500860BFF34F8FA6
:1045C000BFF36F8F10BD00003C00002004ED00E041
:1045D00070B50546FFF7FEFE1E4C05B92568281D7F
:1045E000FFF790FEA86A18B105F11800FFF78AFEE0
:1045F000606A401C60622068854207D1291D164808
:10460000FFF7DCFE6068401C606007E0A068401EA9
:10461000A0602846FFF7E3FAFFF722FDFFF7FAFE56
:104620006069002814D02068854211D1206B38B110
:10463000502080F31188BFF34F8FBFF36F8FFEE7D9
:1046400006494FF080500860BFF34F8FBFF36F8F64
:1046500070BD00003C0000205807002004ED00E081
:1046600002490A6A0260C968416070473C00002044
:1046700001490120C86170473C00002010B50C467C
:1046800050B1094909681831FFF780FE2046BDE89E
:1046900010400121FFF798B9502080F31188BFF333
:1046A0004F8FBFF36F8FFEE73C00002070B51446BC
:1046B0000D4668B10A4909681831FFF77FFE0CB151
:1046C0004FF0FF3521462846BDE87040FFF77CB922
:1046D000502080F31188BFF34F8FBFF36F8FFEE739
:1046E0003C00002010B51446030011D01048026BA6
:1046F000B2B1026841F00041916101681846183179
:10470000FFF75CFE2046BDE810400121FFF75CB9D1
:10471000502080F31188BFF34F8FBFF36F8FFEE7F8
:10472000502080F31188BFF34F8FBFF36F8FFEE7E8
:104730003C00002070B504003ED0226DA2B1E06CB8
:10474000884200D30146E06A884235D0012A33D13D
:104750001A4D2A6894420FD1502080F31188BFF37C
:104760004F8FBFF36F8FFEE7502080F31188BFF3A8
:104770004F8FBFF36F8FFEE7E162A269002A02DB71
:10478000C1F13801A1610E4E00EB8000616906EBBA
:104790008000814210D1201DFFF7B4FDE06A296935
:1047A000884200D9286100EB800006EB8000211DC3
:1047B000BDE87040FFF702BE70BD00003C00002065
:1047C000BC02002070B5194D2A6BF2B141F00041D6
:1047D0000160C4680CB3FFF795FD201DFFF792FD43
:1047E000E06A2969884200D92861114900EB8000FC
:1047F00001EB8000211DFFF7E1FDE06A2968C96A2D
:10480000884201D90120E86170BD502080F31188F1
:10481000BFF34F8FBFF36F8FFEE7502080F31188F7
:10482000BFF34F8FBFF36F8FFEE700003C00002007
:10483000BC02002030B587B00024039405AA04A967
:1048400003A80494FFF77EFDDDE903010094CDE9A0
:104850000110002315A11748059A00F0A0FD164D80
:104860000028E8621FD001F009F8012809D0401C97
:1048700019D1502080F31188BFF34F8FBFF36F8F92
:10488000FEE7502080F31188BFF34F8FBFF36F8F87
:104890004FF0FF30A86201206861EC6007B0BDE80E
:1048A000304000F01DB907B030BD000049444C4510
:1048B00000000000613C00083C0000200248016B41
:1048C000491C0163704700003C000020164810B5E9
:1048D000016B11B10121C16110BD0021C1610169EC
:1048E000124A01E0B9B1491E01EB810352F82330AD
:1048F000002BF7D001EB810302EB830202F10804E5
:1049000053685B685360A34201D15B685360DA6807
:104910000260016110BD502080F31188BFF34F8FFA
:10492000BFF36F8FFEE700003C000020BC020020B8
:1049300070B52020FFF75AFC040005D00025201D8B
:104940002560FFF715FD2577204670BD2DE9F04164
:104950000027884604000AD05FEA18600FD0502074
:1049600080F31188BFF34F8FBFF36F8FFEE75020A6
:1049700080F31188BFF34F8FBFF36F8FFEE7261DC3
:1049800004F10C05FFF79AFF2168F06841EA08017D
:10499000216017E0D0E9001601F07F42530123683F
:1049A00021F07F4102D40B4203D10AE031EA030334
:1049B00007D1D20100D50F43216841F00071FFF704
:1049C00001FF3046A842E5D12068B843206000F0DE
:1049D000F3FE2068BDE8F0812DE9F0479A46DDF846
:1049E000209090460D4604004FF0000709D0280E95
:1049F0000FD0502080F31188BFF34F8FBFF36F8F1C
:104A0000FEE7502080F31188BFF34F8FBFF36F8F05
:104A1000FEE71DB100F05EFD40B112E0502080F3D2
:104A20001188BFF34F8FBFF36F8FFEE7B9F1000F0F
:104A300007D0502080F31188BFF34F8FBFF36F8FE3
:104A4000FEE7FFF73BFF2668524629463046FFF750
:104A500075FB30B1B8F1000F1AD02068A843206070
:104A600016E0B9F1000F13D0B8F1000F01D04FF0EC
:104A70008077BAF1000F01D047F0806745EA07015F
:104A80004A46201DFFF72EFE00F096FE18B10AE000
:104A900000F092FE1FE011494FF080500860BFF314
:104AA0004F8FBFF36F8FFFF741FC0646800110D494
:104AB000FFF790FC2668524629463046FFF73EFB3A
:104AC00028B1B8F1000F02D02068A8432060FFF79A
:104AD000A1FC26F07F463046BDE8F08704ED00E0FB
:104AE0001CB5264908780190FF20087008788DF8D9
:104AF00000009DF800009DF8002000F0F0009042BA
:104B000007D0502080F31188BFF34F8FBFF36F8F12
:104B1000FEE79DF800001A4C00F0500020700720BE
:104B2000A06005E09DF8002052008DF80020401E96
:104B30009DF800201206F5D4A060032807D050206D
:104B400080F31188BFF34F8FBFF36F8FFEE74FF4F1
:104B50004070A060019808700A48016841F4700133
:104B60000160016841F070410160FFF799FC00208D
:104B70006060FBF71BFB00201CBD000000E400E0B0
:104B8000B000002020ED00E010B5502080F3118827
:104B9000BFF34F8FBFF36F8F00F0B0FC18B1044923
:104BA0004FF080500860002080F3118810BD000095
:104BB00004ED00E070B50D460446FFF70BFCA06C59
:104BC00008B9A06B08B1002401E0A5640124FFF737
:104BD00021FC204670BD00220421AFF30080F8B50F
:104BE00017460E46050013D005FB06F05430FFF7BC
:104BF000FDFA04000AD0002084F8460004F15402B3
:104C00003B46314628460094FFF75AF82046F8BD47
:104C1000502080F31188BFF34F8FBFF36F8FFEE7F3
:104C200038B5049D18B153B1CAB181B120E050200C
:104C300080F31188BFF34F8FBFF36F8FFEE75020D3
:104C400080F31188BFF34F8FBFF36F8FFEE75020C3
:104C500080F31188BFF34F8FBFF36F8FFEE739B139
:104C6000502080F31188BFF34F8FBFF36F8FFEE7A3
:104C700054241C46012384F846302B460094FFF749
:104C80001FF8204638BD000070B50D46040025D041
:104C9000FFF7A0FBD4E90F20216802FB0011A160FF
:104CA0000021A163216861600A46D4E90F01401E1A
:104CB00000FB0121E16021464FF0FF3001F8440F75
:104CC000487004F110008DB1FFF752FB04F124008D
:104CD000FFF74EFBFFF79EFB012070BD502080F3D5
:104CE0001188BFF34F8FBFF36F8FFEE72169002953
:104CF000F0D000F029FD0028ECD004494FF080509E
:104D00000860BFF34F8FBFF36F8FE3E704ED00E060
:104D10002DE9FF4782B01D468A464FF00008040087
:104D200003D0BAF1000F08D011E0502080F31188B1
:104D3000BFF34F8FBFF36F8FFEE7206C38B1502069
:104D400080F31188BFF34F8FBFF36F8FFEE7022D03
:104D50000AD1E06B012807D0502080F31188BFF3FF
:104D60004F8FBFF36F8FFEE700F0B4FB454F4FF05E
:104D700000094FF0805648B9049838B1502080F3AC
:104D80001188BFF34F8FBFF36F8FFEE7FFF722FB52
:104D9000A06BE16B884207D3022D05D0049838B38D
:104DA000B8F1000F27D02BE0D4F838802A465146BE
:104DB0002046FEF7DEFEA16C41B1022D02D1B8F112
:104DC000000F0FD12046FFF737F805E0616A19B1EF
:104DD00004F1240000F0B8FC20B13E60BFF34F8F17
:104DE000BFF36F8FFFF716FB012006B0BDE8F08719
:104DF000FFF710FB22E06846FFF732FC4FF0010896
:104E0000FFF708FBFFF75AFDFFF7E4FA94F94400B7
:104E1000401C01D184F8449094F94500401C01D114
:104E200084F84590FFF7F6FA04A9684600F050FAB6
:104E300030B12046FFF79EF900F0BEFC0020D4E719
:104E4000FFF7C8FAA06BE16B884213D1FFF7E2FAD3
:104E500004F110000499FFF711FC2046FFF78AF9CE
:104E600000F0AAFC002891D13E60BFF34F8FBFF342
:104E70006F8F8BE7FFF7CEFA2046FFF77BF900F044
:104E80009BFC83E704ED00E02DE9F0471F46164642
:104E90008A46040003D0BAF1000F08D011E0502078
:104EA00080F31188BFF34F8FBFF36F8FFEE7206C45
:104EB00038B1502080F31188BFF34F8FBFF36F8F4D
:104EC000FEE7022F0AD1E06B012807D0502080F3C3
:104ED0001188BFF34F8FBFF36F8FFEE7FFF7F2FA32
:104EE0005021EFF3118081F31188BFF34F8FBFF38F
:104EF0006F8F8046A06BE16B884207D3022F05D0ED
:104F00005FF0000088F31188BDE8F08794F9455000
:104F1000D4F838903A4651462046FEF72AFE681CDF
:104F200004D06D1C84F845500120EBE7A06C0125EE
:104F300040B1022F02D1B9F1000FF5D12046FEF7A2
:104F40007BFF06E0606A0028EED004F1240000F048
:104F5000FBFB0028E8D0002EE6D03560E4E72DE921
:104F6000F0410E46040009D0206C78B1502080F347
:104F70001188BFF34F8FBFF36F8FFEE7502080F390
:104F80001188BFF34F8FBFF36F8FFEE7206848B9DA
:104F9000A06838B1502080F31188BFF34F8FBFF362
:104FA0006F8FFEE7FFF78EFA5020EFF3118580F345
:104FB0001188BFF34F8FBFF36F8FA16BE06B8842F7
:104FC0001ED994F94500491CA163411C04D0401C22
:104FD00084F84500012014E0A06C012718B1204698
:104FE000FEF72AFF06E0606A0028F3D004F12400EF
:104FF00000F0AAFB0028EDD0002EEBD03760E9E7E7
:10500000002085F31188BDE8F08100002DE9F74705
:10501000002683B08A46040003D0BAF1000F08D0FE
:1050200011E0502080F31188BFF34F8FBFF36F8FD3
:10503000FEE7206C38B1502080F31188BFF34F8F0A
:10504000BFF36F8FFEE700F045FADFF8F4804FF012
:1050500000094FF0805748B9059838B1502080F3C7
:105060001188BFF34F8FBFF36F8FFEE7FFF7B2F9E1
:10507000A56BC5B151462046FEF768FD6D1EA563C0
:10508000206950B104F1100000F05EFB28B1C8F8AF
:105090000070BFF34F8FBFF36F8FFFF7BBF9012095
:1050A00006B0BDE8F087059808B11EB106E0FFF72D
:1050B000B1F927E06846FFF7D3FA0126FFF7AAF90E
:1050C000FFF7FCFBFFF786F994F94400401C01D17F
:1050D00084F8449094F94500401C01D184F845902F
:1050E000FFF798F905A9684600F0F2F80028204675
:1050F0000AD0FFF73FF800F05FFB2046FEF78EFE78
:105100000028B3D00020CBE7FEF788FE90B104F171
:1051100024000599FFF7B2FA2046FFF72BF800F0BC
:105120004BFB0028A2D1C8F80070BFF34F8FBFF32C
:105130006F8F9BE72046FFF71DF800F03DFB95E7DA
:1051400004ED00E008B5002200920A466946FFF728
:105150005DFF009808BD00002DE9F343002683B0F1
:105160000400354609D0206C78B1502080F31188B6
:10517000BFF34F8FBFF36F8FFEE7502080F311888E
:10518000BFF34F8FBFF36F8FFEE700F0A3F9DFF897
:105190003C814FF000094FF0805748B9049838B16E
:1051A000502080F31188BFF34F8FBFF36F8FFEE75E
:1051B000FFF710F9A06BC8B1401EA063206810B9BA
:1051C000FFF782F8A060206950B104F1100000F0F0
:1051D000BBFA28B1C8F80070BFF34F8FBFF36F8FD1
:1051E000FFF718F9012005B0BDE8F083049808B175
:1051F00066B10FE03DB1502080F31188BFF34F8FAF
:10520000BFF36F8FFEE7FFF705F95DE06846FFF734
:1052100027FA0126FFF7FEF8FFF750FBFFF7DAF851
:1052200094F94400401C01D184F8449094F945005D
:10523000401C01D184F84590FFF7ECF804A96846BA
:1052400000F046F80028204612D0FEF793FF00F049
:10525000B3FA2046FEF7E2FD0028A9D09DB3FFF780
:10526000B9F8606A50B3206B0068C0F1380126E0DD
:10527000FEF7D4FDE0B1206838B9FFF7ABF8A068BD
:1052800000F026FA0546FFF7C5F804F1240004995A
:10529000FFF7F4F92046FEF76DFF00F08DFA0028C5
:1052A00086D1C8F80070BFF34F8FBFF36F8F7FE7D1
:1052B0002046FEF75FFF00F07FFA79E70021A06843
:1052C000FFF738FA9FE7FFE700208CE704ED00E0E6
:1052D0002DE9F0410C46050011D0C4B1FFF77AF872
:1052E000174BDA686E682068911B471C17D02F682F
:1052F0001B6A9F4219D0964217D8012410E0502013
:1053000080F31188BFF34F8FBFF36F8FFEE75020FC
:1053100080F31188BFF34F8FBFF36F8FFEE7002438
:10532000FFF778F82046BDE8F081884205D9401A99
:1053300020602846FFF794F9F1E700202060DCE7C1
:105340003C0000202DE9FF5F8346DDE90E8799468A
:1053500016468A469000FEF749FF05001CD05C20E7
:10536000FEF744FF040014D00020256384F85900A0
:10537000CDE90240CDE900874B46324651465846BA
:10538000FEF7B2FC2046FEF74DFB012004B0BDE85D
:10539000F09F2846FFF752F84FF0FF30F6E7F0B5E0
:1053A00085B0DDE90B640A9DA6B1DCB15C270097EE
:1053B0002663022684F85960002604AFCDE9024630
:1053C000CDE90057FEF790FC2046FEF72BFB049832
:1053D00005B0F0BD502080F31188BFF34F8FBFF3AD
:1053E0006F8FFEE7502080F31188BFF34F8FBFF31C
:1053F0006F8FFEE72DE9F0411F4690460D460126CE
:1054000090B10446FEF7E6FF0FB1606D386094F886
:105410005800022184F85810B8F1050F19D2DFE8BE
:1054200008F0230B0E141200502080F31188BFF3F4
:105430004F8FBFF36F8FFEE7616D294301E0616D10
:10544000491C616510E0022801D065650CE000266A
:1054500034E0616D491C07D0502080F31188BFF300
:105460004F8FBFF36F8FFEE7012827D1201DFEF776
:1054700049FF154DE06A2969884200D9286113491E
:1054800000EB800001EB8000211DFEF797FFA06A72
:1054900038B1502080F31188BFF34F8FBFF36F8F67
:1054A000FEE7E06A2968C96A884207D908494FF0CF
:1054B00080500860BFF34F8FBFF36F8FFEF7AAFFD6
:1054C0003046BDE8F08100003C000020BC02002016
:1054D00004ED00E00548416919B1006B18B10020E6
:1054E0007047012070470220704700003C000020F8
:1054F0000148C068704700003C0000202DE9F041E1
:105500002E4C0027206B28B1A069401CA0613846B2
:10551000BDE8F081E668761CE66013D1606B006838
:1055200038B1502080F31188BFF34F8FBFF36F8FD6
:10553000FEE7606BA16B6163A063206A401C206280
:10554000FEF78EFDA06ADFF87880864209D3606B93
:105550000068A0B1606BC068C5686868864211D2F7
:10556000A0622068C06A00EB800158F82100012881
:1055700000D90127E0690028C9D00127C7E74FF00B
:10558000FF30EDE7281DFEF7BDFEA86A18B105F152
:105590001800FEF7B7FEE86A2169884200D9206149
:1055A00000EB800108EB8100291DFEF707FFE86A88
:1055B0002168C96A8842CAD30127C8E73C00002095
:1055C000BC0200202DE9F0411E46154688460746DC
:1055D000FEF700FF1C4C206890F85800022814D0F9
:1055E0002068416DB94341652168012081F8580068
:1055F0005EB101213046FEF7E7F914494FF08050C3
:105600000860BFF34F8FBFF36F8FFEF703FFFEF706
:10561000E1FE15B12068406D2860206890F85800C0
:10562000022801D0002505E02068416D21EA08012B
:10563000416501252168002081F85800FEF7EAFE47
:105640002846BDE8F08100003C00002004ED00E0A9
:1056500070B504004FF0000133D01B4D2868844220
:1056600007D0502080F31188BFF34F8FBFF36F8FA7
:10567000FEE7206D38B1401E2065E36CE26A9A4275
:105680001FD040B11DE0502080F31188BFF34F8F31
:10569000BFF36F8FFEE7201DFEF734FEE06CE06283
:1056A000C0F13800A061E06A2969884200D9286108
:1056B000064900EB800001EB8000211DFEF77EFE15
:1056C0000121084670BD00003C000020BC02002003
:1056D00070B504004FF000002BD0194DE16A2A6824
:1056E000D26A914226D2A069002804DB2868C06AE9
:1056F000C0F13800A061134E01EB8101606906EB37
:105700008101884211D1201DFEF7FCFD2868C06A86
:10571000E0622969884200D9286100EB800006EB2D
:105720008000211DFEF74AFE02E02868C06AE062A0
:10573000012070BDE16C2A68D26A9142F8D370BD35
:105740003C000020BC02002070B5C068C46854B1A1
:1057500004F118000646FEF7D5FD144D286B50B134
:105760003146134815E0502080F31188BFF34F8F66
:10577000BFF36F8FFEE7201DFEF7C4FDE06A2969C5
:10578000884200D928610B4900EB800001EB8000C2
:10579000211DFEF713FEE06A2968C96A884202D912
:1057A0000120E86170BD002070BD00003C000020B9
:1057B00044070020BC0200202DE9F0472C4D0024B6
:1057C0002746286B38B1FEF705FE286B401E28637C
:1057D000286B40B146E0502080F31188BFF34F8F13
:1057E000BFF36F8FFEE7A968224E0120D1B3A6F563
:1057F000916980463068E0B1F068C46804F118002F
:10580000FEF780FD201DFEF77DFDE06A29698842D4
:1058100000D9286100EB800109EB8100211DFEF712
:10582000CDFDE06A2968C96A8842E3D3C5F81C80C7
:10583000E0E70CB1FEF714FCAC694CB14FEA080686
:10584000FFF75CFE00B1EE61641EF9D10020A86193
:10585000E86938B10849012738070860BFF34F8F5E
:10586000BFF36F8FFEF7D6FD3846BDE8F087000026
:105870003C0000204407002004ED00E010B586B095
:10588000FEF738F9114C2068B8B10020039004905D
:1058900005AA04A903A8FEF75FFDDDE903210220A4
:1058A0008DE8070000230AA10B48059AFFF777FD52
:1058B000606010B106B0012010BD502080F3118847
:1058C000BFF34F8FBFF36F8FFEE70000780000201B
:1058D000546D722053766300514100082DE9FF4159
:1058E0001E46134602000A9D4FF0000016D0144CCD
:1058F0002768002F0FD0CDE900130292062917DA8E
:10590000FFF7E8FD02284FF000030FD000226946A0
:105910002068FFF7FDF904B0BDE8F081502080F366
:105920001188BFF34F8FBFF36F8FFEE72A46EEE774
:105930000023324669463846FFF7A6FAEBE7000037
:105940007800002021F00042A2F16052B2F5801FE1
:1059500001F0004328BFD2F17F6C0BD95FEA001C35
:1059600043EAC20242EB507018BF704728BF20F0D4
:1059700001007047B2F5801FBCBF184670474FEA60
:10598000410C1CF5001F02D2084600F0BCBC70B5EB
:1059900000F01DFA00000089FFF7F6BF4FF000404D
:1059A000A0F580007047000010B591EA030F48BFD2
:1059B00083F0004300F16882841A71EB030C05D276
:1059C000121943EB0C03001B61EB0C01DFF824E11F
:1059D0004FEA1154A4EB135C1EEA430F18BF9EEA72
:1059E000445F73D023EA0E03DCF1200E21EA045158
:1059F00043F4801332D322FA0CFE10EB0E0023FA8C
:105A00000CFE41EB0E01CCF1200E03FA0EFE10EB62
:105A10000E0051F10001B1F5801FCCF1200E32D201
:105A200001EB045112FA0EF2BDE8104058BF704766
:105A3000401C38BF5FEA420218BF7047002814BFFD
:105A400020F0010041F100014FEA410313F5001F6E
:105A500038BF7047A1F1C04100F007BA012A43EBFB
:105A60000302ACF1200CDCF11F0E32BF4FF0000E30
:105A700023FA0CF310EB030041EB0451B4EB115F7C
:105A8000D0D0A1EB045101F5801149085FEA300044
:105A900001EB04510ED350F1000038BF12FA0EFE94
:105AA00008D1BDE81040C9E7401C38BF5FEA420298
:105AB000CAD1C3E7BDE810404FEA410313F5001F08
:105AC00038BF7047A1F1C04100F0CFB99EEA445FF2
:105AD00008D011EA5E0FBDE8104004BF01F000419C
